S011000046696E616C50726F6A2E737265638E
S21400000018F09FE518F09FE518F09FE518F09FE5BB
S21400001018F09FE518F09FE518F09FE518F09FE5AB
S214000020900A0000940A0000980A00009C0A00004B
S214000030A00A0000B4660200500A0000A40A0000ED
S214000040260000EA8C609FE5000056E380402DE91C
S214000050016046E21E00000A7C509FE50000A0E317
S2140000600010A0E30C2015E510E015E5084015E5A6
S21400007002005EE1042082000900000A000054E34A
S2140000800700000A0270A0E102C0A0E10C00BEE872
S2140000900C00ACE80C3067E0030054E10C20A0E153
S2140000A0F9FFFF1A04E015E500005EE30230A01138
S2140000B00300000A0300A3E803C062E00C005EE150
S2140000C0FBFFFF1A016046E2010076E3145085E26A
S2140000D0E3FFFF1A5D9900EB010000009C67020039
S2140000E03C108FE21600A0E3563412EF000050E3F7
S2140000F0080000BA28209FE51CD09FE5080092E57E
S214000100000050E300D0A01110109FE5040092E517
S214000110000050E300008115C9FFFFEAF8FFFF3F2B
S214000120186C0200606C020000D01FE5C4FFFFEAF6
S214000130F8FFFF3F08402DE92C009FE52C309FE597
S214000140033060E0060053E30100008A0840BDE883
S2140001501EFF2FE118309FE5000053E3FAFFFF0A69
S2140001600FE0A0E113FF2FE1F7FFFFEA206C02008B
S214000170236C02000000000008402DE934009FE5D3
S21400018034309FE5033060E04331A0E1A33F83E0D5
S214000190C310B0E10100001A0840BDE81EFF2FE1C1
S2140001A018209FE5000052E3FAFFFF0A0FE0A0E1E7
S2140001B012FF2FE1F7FFFFEA206C0200206C02001E
S2140001C00000000010402DE92C409FE50030D4E5EB
S2140001D0000053E30600001AD5FFFFEB1C309FE536
S2140001E0000053E318009F1500F020130130A0E331
S2140001F00030C4E51040BDE81EFF2FE1206C020071
S214000200000000004067020008402DE934309FE5FA
S214000210000053E330009F1530109F1500F02013A8
S2140002202C009FE5003090E5000053E30300000A31
S21400023020309FE5000053E30FE0A01113FF2F11BD
S2140002400840BDE8CBFFFFEA000000004067020060
S214000250246C0200A06702000000000010402DE998
S214000260A84706E3024040E34B3FA0E3003084E5A6
S214000270053DA0E3043084E5279800EBE33906E368
S2140002808F3B4AE39320C3E0003083E0C02FA0E119
S214000290C33362E0832083E0023363E0000063E060
S2140002A0080084E51C9800EBFD300BE3483941E379
S2140002B09320C3E0C02FA0E1C33162E0833183E026
S2140002C0833183E0000063E0280080E2082094E5A4
S2140002D0020080E00C0084E53C3C06E3023040E38C
S2140002E00020A0E30020C3E5042083E51080BDE8DD
S2140002F0003090E5002091E5002080E5003081E5A3
S2140003001EFF2FE1FF3F03E3203F4FE30120A0E362
S214000310DF2F03E5D33F13E5010013E31EFF2F0194
S214000320FF2F03E3202F4FE3D33F12E5010013E333
S214000330FCFFFF1A1EFF2FE13C3C06E3023040E3C1
S214000340083093E58000A0E1011583E0B02081E14C
S2140003501EFF2FE1F04F2DE914D04DE20C008DE585
S21400036008108DE504208DE500308DE5033061E052
S214000370000053E3003063B2022060E0C28F22E048
S214000380C28F48E0080053E10080A0D30180A0C3DC
S214000390000058E30500000A0C008DE208108DE20C
S2140003A0D2FFFFEB04008DE20D10A0E1CFFFFFEBC4
S2140003B004309DE50C209DE5030052E1050000DABF
S2140003C00C008DE204108DE2C8FFFFEB08008DE202
S2140003D00D10A0E1C5FFFFEB04309DE50C509DE538
S2140003E0039065E000209DE508609DE5027066E0EC
S2140003F0000057E3007067B2A94F89E0C440A0E14F
S214000400004064E2060052E100B0E0D301B0A0C3B1
S214000410050053E10E0000BAF8A3DDE1000058E342
S2140004200600A0110510A0110500A0010610A001ED
S2140004300A20A0E1BFFFFFEB074094E00B60865068
S21400044004406950015085E204309DE5050053E103
S214000450F1FFFFAA14D08DE2F08FBDE870402DE9C1
S2140004600050A0E30560A0E1090000EA0400A0E156
S2140004700510A0E10620A0E1AEFFFFEB014084E2FC
S214000480050D54E3F8FFFF1A015085E2F00055E32E
S2140004907080BD080640A0E1F3FFFFEA70402DE93A
S2140004A0A83706E3023040E3EE20A0E3102083E501
S2140004B03C2C06E3022040E30010A0E30C1082E58B
S2140004C04B0FA0E3000083E5050DA0E3040083E5E1
S2140004D03200A0E3080083E56400A0E30C0083E597
S2140004E0041082E5101082E5143092E5010053E115
S2140004F02300001A2B0000EAB210F2E1B210C3E0AB
S214000500000053E1FBFFFF1A01C08CE2F0005CE341
S2140005100900000A8C04A0E10C218CE082238EE006
S214000520022042E20C35A0E1323383E2190380E276
S214000530050D80E28000A0E1EEFFFFEA143095E5AD
S214000540182094E5022185E0181092E51C2094E519
S214000550022185E0182092E50228A0E1011482E13C
S214000560202094E5022185E0182092E5022081E112
S214000570002083E5143094E5000053E30700001ADA
S214000580080000EA0060A0E3A8EA00E300E040E319
S214000590A85706E3025040E33C4C06E3024040E323
S2140005A006C0A0E1DAFFFFEAABFFFFEB7080BDE814
S2140005B0D230A0E303F029E10730E0E303D0A0E166
S2140005C0D330A0E303F029E11EFF2FE1123AE0E367
S2140005D00124A0E33B2703E58020A0E3E72E03E504
S2140005E0812082E2B72703E5032CA0E3F72E03E57C
S2140005F0131AE0E3FF2F0FE3FB2E01E50120A0E333
S214000600FF2E01E5FF2F03E51EFF2FE15330A0E389
S21400061003F029E11EFF2FE10030A0E3203F4FE367
S2140006200320A0E3582083E51EFF2FE1023AA0E353
S214000630203F4FE3402204E3082083E50F20A0E399
S2140006400C2083E50720A0E3042083E51EFF2FE1AE
S214000650F0472DE908D04DE2D4FFFFEBDAFFFFEBC1
S214000660ECFFFFEBF0FFFFEBE7FFFFEBFF3F03E3E3
S214000670203F4FE3DF2F13E53C3C06E3023040E328
S214000680082083E574FFFFEBA83706E3023040E35B
S214000690103093E51F20A0E300208DE52800A0E39E
S2140006A00310A0E16420A0E329FFFFEB3C6C06E307
S2140006B0026040E3A85706E3025040E30080A0E350
S2140006C0FF7700E301A0A0E3143096E5000053E3B3
S2140006D00000000A70FFFFEB0030D6E5000053E391
S2140006E03900001A089095E50C3095E5030059E1AD
S2140006F0140000AA043096E5004095E5044063E047
S214000700042095E5023063E0030054E1090000AAE6
S2140007100400A0E10910A0E10820A0E105FFFFEB1E
S214000720014084E2042095E5043096E5023063E05B
S214000730040053E1F5FFFFCA019089E20C3095E50D
S214000740090053E1EAFFFFCA043096E5023083E26F
S214000750043086E5042095E5023063E0000053E3AC
S21400076000A0C6B5089095E50C3095E5030059E164
S214000770160000AA043096E5004095E5044063E0C4
S214000780042095E5023063E0030054E1090000AA66
S2140007900400A0E10910A0E10720A0E1E5FEFFEBC0
S2140007A0014084E2042095E5043096E5023063E0DB
S2140007B0040053E1F5FFFFCA019089E20C3095E58D
S2140007C0090053E1EAFFFFCA000000EAA2FEFFEBC1
S2140007D0CBFEFFEBBBFFFFEA0030A0E3203F4FE37A
S2140007E05C2093E53C3C06E3023040E30C3093E5A6
S2140007F0010073E30400001A3C3C06E3023040E3C9
S2140008000110A0E30C1083E5150000EA010053E395
S2140008100400001A3C3C06E3023040E30010E0E32C
S2140008200C1083E50E0000EAA83706E3023040E32A
S214000830103093E5ED0053E3040000DA3C3C06E399
S214000840023040E30010E0E30C1083E5040000EA09
S214000850000053E33C3C06D3023040D30110A0D343
S2140008600C1083D53C3C06E3023040E3143093E59D
S214000870000053E33C3C0613023040130010A01364
S214000880141083150030A0E3203F4FE35C2083E57F
S2140008901EFF2FE1F0412DE908D04DE2023AA0E319
S2140008A0203F4FE30020A0E3002083E53C3C06E326
S2140008B0023040E3143093E5020053E16100001A71
S2140008C03C5C06E3025040E3103095E5013083E2DD
S2140008D0103085E5AD6B08E3DB6846E39603C6E0BB
S2140008E0C32FA0E1466662E0D37D04E3627041E375
S2140008F09713C7E0477362E00910E0E3917627E0BC
S2140009001F8508E3EB8145E39803C8E0C82262E050
S2140009106380E0E3980608E0918721E0018082E0AA
S214000920A84706E3024040E3143094E5072184E03C
S214000930181092E5062184E0182092E50228A0E12E
S214000940012482E1081184E0181091E5012082E17B
S214000950002083E5103094E50020A0E300208DE51C
S2140009602800A0E30310A0E16420A0E378FEFFEBDC
S214000970102094E50C3095E5033082E0103084E5D5
S214000980ED0053E30010A0C30C1085C5040000CA98
S214000990000053E33C2C06D3022040D30010A0D323
S2140009A00C1082D53C2C06E3022040E3041092E5AE
S2140009B0A82706E3022040E3002092E5022061E03B
S2140009C0282042E23C0052E30600009AA82706E3ED
S2140009D0022040E3042092E5021061E0281041E284
S2140009E03C0051E31100008AA82706E3022040E3FA
S2140009F0082092E5020053E10C0000BAA82706E39F
S214000A00022040E30C2092E5020053E1070000CAF2
S214000A103C3C06E3023040E30120A0E3142083E5DB
S214000A201C6083E5187083E5208083E5050000EAF6
S214000A301F20A0E300208DE52800A0E30310A0E11E
S214000A406420A0E342FEFFEB08D08DE2F081BDE813
S214000A5004E04EE23F502DE9133AE0E3F34E13E58F
S214000A60490054E30100001A5AFFFFEB040000EAB5
S214000A70480054E30100001A85FFFFEB000000EA7F
S214000A80FEFFFFEA133AE0E3EF4E03E53F90FDE892
S214000A90FEFFFFEAFEFFFFEAFEFFFFEAFEFFFFEAB9
S214000AA0FEFFFFEAFEFFFFEA0400051E000000004E
S214000AB00000000000000000000000000000000031
S214000AC00000000000000000000000000000000021
S214000AD00000000000000000000000000000000011
S214000AE00000000000000000000000000000000001
S214004D700000000000000000FFFFFFFFFFFFFFFF36
S214004D80FFFFFFFFFFFFFFFFFFFFFFFFFFFFFFFF2E
S214004D90FFFFFFFFFFFFFFFFFFFFFFFFFFFFFFFF1E
S214004DA0FFFFFFFFFFFFFFFFFFFFFFFFFFFFFFFF0E
S214004DB0FFFFFFFFFFFFFFFFFFFFFFFFFFFFFFFFFE
S214004DC0FFFFFFFFFFFFFFFFFFFFFFFFFFFF0000EC
S214004DD000000000000000000000000000000000CE
S214004DE000000000000000000000000000000000BE
S214004DF000000000000000000000000000000000AE
S214004E00000000000000000000000000000000009D
S214004E10000000000000000000000000000000008D
S214004E20000000000000000000000000000000007D
S214004E30000000000000000000000000000000006D
S214004E40000000000000000000000000000000005D
S214004E50000000000000000000000000000000004D
S214004E60000000000000000000000000000000003D
S214004E70000000000000000000000000000000002D
S214004E80000000000000000000000000000000001D
S214004E90000000000000000000000000000000000D
S214004EA000000000000000000000000000000000FD
S214004EB000000000000000000000000000000000ED
S214004EC000000000000000000000000000000000DD
S214004ED000000000000000000000000000000000CD
S214004EE000000000000000000000000000000000BD
S214004EF000000000000000000000000000000000AD
S214004F00000000000000000000000000000000009C
S214004F10000000000000000000000000000000008C
S214004F20000000000000000000000000000000007C
S214004F30000000000000000000000000000000006C
S214004F40000000000000000000000000000000005C
S214004F50000000000000000000000000000000004C
S214004F60000000000000000000000000000000003C
S214004F70000000000000000000000000000000002C
S214004F80000000000000000000000000000000001C
S214004F90000000000000000000000000000000000C
S214004FA000000000000000000000000000000000FC
S214004FB000000000000000000000000000000000EC
S214004FC000000000FFFFFFFFFFFFFFFFFFFF0000E6
S214004FD000000000000000000000000000000000CC
S214004FE000000000000000000000000000000000BC
S214004FF00000000000000000FFFFFFFFFFFFFFFFB4
S214005000FFFFFFFFFFFFFFFFFFFFFFFFFFFFFFFFAB
S214005010FFFFFFFFFFFFFFFFFFFFFFFFFFFFFFFF9B
S214005020FFFFFFFFFFFFFFFFFFFFFFFFFFFFFFFF8B
S214005030FFFFFFFFFFFFFFFFFFFFFFFFFFFFFFFF7B
S214005040FFFFFFFFFFFFFFFFFFFFFFFFFFFF000069
S214005050000000000000000000000000000000004B
S214005060000000000000000000000000000000003B
S214005070000000000000000000000000000000002B
S214005080000000000000000000000000000000001B
S214005090000000000000000000000000000000000B
S2140050A000000000000000000000000000000000FB
S2140050B000000000000000000000000000000000EB
S2140050C000000000000000000000000000000000DB
S2140050D000000000000000000000000000000000CB
S2140050E000000000000000000000000000000000BB
S2140050F000000000000000000000000000000000AB
S214005100000000000000000000000000000000009A
S214005110000000000000000000000000000000008A
S214005120000000000000000000000000000000007A
S214005130000000000000000000000000000000006A
S214005140000000000000000000000000000000005A
S214005150000000000000000000000000000000004A
S214005160000000000000000000000000000000003A
S214005170000000000000000000000000000000002A
S214005180000000000000000000000000000000001A
S214005190000000000000000000000000000000000A
S2140051A000000000000000000000000000000000FA
S2140051B000000000000000000000000000000000EA
S2140051C000000000000000000000000000000000DA
S2140051D000000000000000000000000000000000CA
S2140051E000000000000000000000000000000000BA
S2140051F000000000000000000000000000000000AA
S2140052000000FFFFFFFFFFFFFFFFFFFF00000000A3
S2140052100000000000000000000000000000000089
S2140052200000000000000000000000000000000079
S2140052300000000000000000000000000000000069
S21400524000000000FFFFFFFFFFFFFFFFFFFF000063
S2140052500000000000000000000000000000000049
S2140052600000000000000000000000000000000039
S2140052700000000000000000FFFFFFFFFFFFFFFF31
S214005280FFFFFFFFFFFFFFFFFFFFFFFFFFFFFFFF29
S214005290FFFFFFFFFFFFFFFFFFFFFFFFFFFFFFFF19
S2140052A0FFFFFFFFFFFFFFFFFFFFFFFFFFFFFFFF09
S2140052B0FFFFFFFFFFFFFFFFFFFFFFFFFFFFFFFFF9
S2140052C0FFFFFFFFFFFFFFFFFFFFFFFFFFFF0000E7
S2140052D000000000000000000000000000000000C9
S2140052E000000000000000000000000000000000B9
S2140052F000000000000000000000000000000000A9
S2140053000000000000000000000000000000000098
S2140053100000000000000000000000000000000088
S2140053200000000000000000000000000000000078
S2140053300000000000000000000000000000000068
S2140053400000000000000000000000000000000058
S2140053500000000000000000000000000000000048
S2140053600000000000000000000000000000000038
S2140053700000000000000000000000000000000028
S2140053800000000000000000000000000000000018
S2140053900000000000000000000000000000000008
S2140053A000000000000000000000000000000000F8
S2140053B000000000000000000000000000000000E8
S2140053C000000000000000000000000000000000D8
S2140053D000000000000000000000000000000000C8
S2140053E000000000000000000000000000000000B8
S2140053F000000000000000000000000000000000A8
S2140054000000000000000000000000000000000097
S2140054100000000000000000000000000000000087
S2140054200000000000000000000000000000FFFF79
S214005430FFFFFFFFFFFFFFFF00000000000000006F
S2140054400000000000000000000000000000000057
S2140054500000000000000000000000000000000047
S2140054600000000000000000000000000000000037
S2140054700000000000000000000000000000000027
S2140054800000FFFFFFFFFFFFFFFFFFFFFFFF000023
S2140054900000000000000000000000000000000007
S2140054A000000000000000000000000000000000F7
S2140054B000000000000000000000000000000000E7
S2140054C00000FFFFFFFFFFFFFFFFFFFFFFFF0000E3
S2140054D000000000000000000000000000000000C7
S2140054E000000000000000000000000000000000B7
S2140054F00000000000000000FFFFFFFFFFFFFFFFAF
S214005500FFFFFFFFFFFFFFFFFFFFFFFFFFFFFFFFA6
S214005510FFFFFFFFFFFFFFFFFFFFFFFFFFFFFFFF96
S214005520FFFFFFFFFFFFFFFFFFFFFFFFFFFFFFFF86
S214005530FFFFFFFFFFFFFFFFFFFFFFFFFFFFFFFF76
S214005540FFFFFFFFFFFFFFFFFFFFFFFFFFFF000064
S2140055500000000000000000000000000000000046
S2140055600000000000000000000000000000000036
S2140055700000000000000000000000000000000026
S2140055800000000000000000000000000000000016
S2140055900000000000000000000000000000000006
S2140055A000000000000000000000000000000000F6
S2140055B000000000000000000000000000000000E6
S2140055C000000000000000000000000000000000D6
S2140055D000000000000000000000000000000000C6
S2140055E000000000000000000000000000000000B6
S2140055F000000000000000000000000000000000A6
S2140056000000FFFFFFFFFFFFFFFFFFFFFFFFFFFFA3
S214005610FFFFFFFFFFFFFFFFFFFFFFFFFFFFFFFF95
S214005620FFFFFFFFFFFFFFFFFFFFFFFFFFFFFFFF85
S214005630FFFFFFFFFFFFFFFFFFFFFFFFFFFFFFFF75
S214005640FFFFFFFFFFFFFFFFFFFFFFFFFFFFFFFF65
S214005650FFFFFFFFFFFFFFFFFFFFFFFFFFFF000053
S2140056600000000000000000000000000000000035
S2140056700000000000000000000000000000000025
S2140056800000000000000000000000000000000015
S2140056900000000000000000000000000000000005
S2140056A00000000000000000000000000000FFFFF7
S2140056B0FFFFFFFFFFFFFFFF0000000000000000ED
S2140056C000000000000000000000000000000000D5
S2140056D000000000000000000000000000000000C5
S2140056E000000000000000000000000000000000B5
S2140056F000000000000000000000000000000000A5
S2140057000000FFFFFFFFFFFFFFFFFFFFFFFF0000A0
S2140057100000000000000000000000000000000084
S2140057200000000000000000000000000000000074
S2140057300000000000000000000000000000000064
S2140057400000FFFFFFFFFFFFFFFFFFFFFFFF000060
S2140057500000000000000000000000000000000044
S2140057600000000000000000000000000000000034
S2140057700000000000000000FFFFFFFFFFFFFFFF2C
S2140057800000000000000000000000000000000014
S2140057900000000000000000000000000000000004
S2140057A000000000000000000000000000000000F4
S2140057B000000000000000000000000000000000E4
S2140057C000000000000000000000000000000000D4
S2140057D000000000000000000000000000000000C4
S2140057E000000000000000000000000000000000B4
S2140057F000000000000000000000000000000000A4
S2140058000000000000000000000000000000000093
S2140058100000000000000000000000000000000083
S2140058200000000000000000000000000000000073
S2140058300000000000000000000000000000000063
S2140058400000000000000000000000000000000053
S2140058500000000000000000000000000000000043
S2140058600000000000000000000000000000000033
S2140058700000000000000000000000000000000023
S2140058800000FFFFFFFFFFFFFFFFFFFFFFFFFFFF21
S214005890FFFFFFFFFFFFFFFFFFFFFFFFFFFFFFFF13
S2140058A0FFFFFFFFFFFFFFFFFFFFFFFFFFFFFFFF03
S2140058B0FFFFFFFFFFFFFFFFFFFFFFFFFFFFFFFFF3
S2140058C0FFFFFFFFFFFFFFFFFFFFFFFFFFFFFFFFE3
S2140058D0FFFFFFFFFFFFFFFFFFFFFFFFFFFF0000D1
S2140058E000000000000000000000000000000000B3
S2140058F000000000000000000000000000000000A3
S2140059000000000000000000000000000000000092
S2140059100000000000000000000000000000000082
S2140059200000000000000000000000000000FFFF74
S214005930FFFFFFFFFFFFFFFF00000000000000006A
S2140059400000000000000000000000000000000052
S2140059500000000000000000000000000000000042
S2140059600000000000000000000000000000000032
S2140059700000000000000000000000000000000022
S2140059800000FFFFFFFFFFFFFFFFFFFFFFFFFFFF20
S2140059900000000000000000000000000000000002
S2140059A000000000000000000000000000000000F2
S2140059B000000000000000000000000000000000E2
S2140059C0FFFFFFFFFFFFFFFFFFFFFFFFFFFF0000E0
S2140059D000000000000000000000000000000000C2
S2140059E000000000000000000000000000000000B2
S2140059F00000000000000000FFFFFFFFFFFFFFFFAA
S214005A000000000000000000000000000000000091
S214005A100000000000000000000000000000000081
S214005A200000000000000000000000000000000071
S214005A300000000000000000000000000000000061
S214005A400000000000000000000000000000000051
S214005A500000000000000000000000000000000041
S214005A600000000000000000000000000000000031
S214005A700000000000000000000000000000000021
S214005A800000000000000000000000000000000011
S214005A900000000000000000000000000000000001
S214005AA000000000000000000000000000000000F1
S214005AB000000000000000000000000000000000E1
S214005AC000000000000000000000000000000000D1
S214005AD000000000000000000000000000000000C1
S214005AE000000000000000000000000000000000B1
S214005AF000000000000000000000000000000000A1
S214005B000000FFFFFFFFFFFFFFFFFFFFFFFFFFFF9E
S214005B10FFFFFFFFFFFFFFFFFFFFFFFFFFFFFFFF90
S214005B20FFFFFFFFFFFFFFFFFFFFFFFFFFFFFFFF80
S214005B30FFFFFFFFFFFFFFFFFFFFFFFFFFFFFFFF70
S214005B40FFFFFFFFFFFFFFFFFFFFFFFFFFFFFFFF60
S214005B50FFFFFFFFFFFFFFFFFFFFFFFFFFFF00004E
S214005B600000000000000000000000000000000030
S214005B700000000000000000000000000000000020
S214005B800000000000000000000000000000000010
S214005B900000000000000000000000000000000000
S214005BA00000000000000000000000000000FFFFF2
S214005BB0FFFFFFFFFFFFFFFF0000000000000000E8
S214005BC000000000000000000000000000000000D0
S214005BD000000000000000000000000000000000C0
S214005BE000000000000000000000000000000000B0
S214005BF000000000000000000000000000000000A0
S214005C000000FFFFFFFFFFFFFFFFFFFFFFFFFFFF9D
S214005C10000000000000000000000000000000007F
S214005C20000000000000000000000000000000006F
S214005C30000000000000000000000000000000005F
S214005C40FFFFFFFFFFFFFFFFFFFFFFFFFFFF00005D
S214005C50000000000000000000000000000000003F
S214005C60000000000000000000000000000000002F
S214005C700000000000000000FFFFFFFFFFFFFFFF27
S214005C80000000000000000000000000000000000F
S214005C9000000000000000000000000000000000FF
S214005CA000000000000000000000000000000000EF
S214005CB000000000000000000000000000000000DF
S214005CC000000000000000000000000000000000CF
S214005CD000000000000000000000000000000000BF
S214005CE000000000000000000000000000000000AF
S214005CF0000000000000000000000000000000009F
S214005D00000000000000000000000000000000008E
S214005D10000000000000000000000000000000007E
S214005D20000000000000000000000000000000006E
S214005D30000000000000000000000000000000005E
S214005D40000000000000000000000000000000004E
S214005D50000000000000000000000000000000003E
S214005D60000000000000000000000000000000002E
S214005D70000000000000000000000000000000001E
S214005D800000FFFFFFFFFFFFFFFFFFFFFFFFFFFF1C
S214005D90FFFFFFFFFFFFFFFFFFFFFFFFFFFFFFFF0E
S214005DA0FFFFFFFFFFFFFFFFFFFFFFFFFFFFFFFFFE
S214005DB0FFFFFFFFFFFFFFFFFFFFFFFFFFFFFFFFEE
S214005DC0FFFFFFFFFFFFFFFFFFFFFFFFFFFFFFFFDE
S214005DD0FFFFFFFFFFFFFFFFFFFFFFFFFFFF0000CC
S214005DE000000000000000000000000000000000AE
S214005DF0000000000000000000000000000000009E
S214005E00000000000000000000000000000000008D
S214005E10000000000000000000000000000000007D
S214005E20000000000000000000000000FFFFFFFF71
S214005E30FFFFFFFFFFFFFFFFFFFF00000000000067
S214005E40000000000000000000000000000000004D
S214005E50000000000000000000000000000000003D
S214005E60000000000000000000000000000000002D
S214005E70000000000000000000000000000000001D
S214005E800000FFFFFFFFFFFFFFFFFFFFFFFFFFFF1B
S214005E90FFFF0000000000000000000000000000FF
S214005EA000000000000000000000000000000000ED
S214005EB00000000000000000000000000000FFFFDF
S214005EC0FFFFFFFFFFFFFFFFFFFFFFFFFFFF0000DB
S214005ED000000000000000000000000000000000BD
S214005EE000000000000000000000000000000000AD
S214005EF00000000000000000FFFFFFFFFFFFFFFFA5
S214005F00000000000000000000000000000000008C
S214005F10000000000000000000000000000000007C
S214005F20000000000000000000000000000000006C
S214005F30000000000000000000000000000000005C
S214005F40000000000000000000000000000000004C
S214005F50000000000000000000000000000000003C
S214005F60000000000000000000000000000000002C
S214005F70000000000000000000000000000000001C
S214005F80000000000000000000000000000000000C
S214005F9000000000000000000000000000000000FC
S214005FA000000000000000000000000000000000EC
S214005FB000000000000000000000000000000000DC
S214005FC000000000000000000000000000000000CC
S214005FD000000000000000000000000000000000BC
S214005FE000000000000000000000000000000000AC
S214005FF0000000000000000000000000000000009C
S2140060000000FFFFFFFFFFFFFFFF00000000000093
S214006010000000000000000000000000000000007B
S214006020000000000000000000000000000000006B
S214006030000000000000000000000000000000005B
S214006040000000000000000000000000000000004B
S214006050000000000000000000000000000000003B
S214006060000000000000000000000000000000002B
S214006070000000000000000000000000000000001B
S214006080000000000000000000000000000000000B
S21400609000000000000000000000000000000000FB
S2140060A0000000000000000000000000FFFFFFFFEF
S2140060B0FFFFFFFFFFFFFFFFFFFF000000000000E5
S2140060C000000000000000000000000000000000CB
S2140060D000000000000000000000000000000000BB
S2140060E000000000000000000000000000000000AB
S2140060F0000000000000000000000000000000009B
S2140061000000FFFFFFFFFFFFFFFFFFFFFFFFFFFF98
S214006110FFFFFFFF0000000000000000000000007E
S214006120000000000000000000000000000000006A
S2140061300000000000000000000000000000FFFF5C
S214006140FFFFFFFFFFFFFFFFFFFFFFFFFFFF000058
S214006150000000000000000000000000000000003A
S214006160000000000000000000000000000000002A
S2140061700000000000000000FFFFFFFFFFFFFFFF22
S214006180000000000000000000000000000000000A
S21400619000000000000000000000000000000000FA
S2140061A000000000000000000000000000000000EA
S2140061B000000000000000000000000000000000DA
S2140061C000000000000000000000000000000000CA
S2140061D000000000000000000000000000000000BA
S2140061E000000000000000000000000000000000AA
S2140061F0000000000000000000000000000000009A
S2140062000000000000000000000000000000000089
S2140062100000000000000000000000000000000079
S2140062200000000000000000000000000000000069
S2140062300000000000000000000000000000000059
S2140062400000000000000000000000000000000049
S2140062500000000000000000000000000000000039
S2140062600000000000000000000000000000000029
S2140062700000000000000000000000000000000019
S2140062800000FFFFFFFFFFFFFFFF00000000000011
S21400629000000000000000000000000000000000F9
S2140062A000000000000000000000000000000000E9
S2140062B000000000000000000000000000000000D9
S2140062C000000000000000000000000000000000C9
S2140062D000000000000000000000000000000000B9
S2140062E000000000000000000000000000000000A9
S2140062F00000000000000000000000000000000099
S2140063000000000000000000000000000000000088
S2140063100000000000000000000000000000000078
S214006320000000000000000000000000FFFFFFFF6C
S214006330FFFFFFFFFFFFFFFFFFFFFFFF0000000064
S2140063400000000000000000000000000000000048
S2140063500000000000000000000000000000000038
S2140063600000000000000000000000000000000028
S2140063700000000000000000000000000000000018
S2140063800000FFFFFFFFFFFFFFFFFFFFFFFFFFFF16
S214006390FFFFFFFF000000000000000000000000FC
S2140063A000000000000000000000000000000000E8
S2140063B0000000000000000000000000FFFFFFFFDC
S2140063C0FFFFFFFFFFFFFFFFFFFFFFFFFFFF0000D6
S2140063D000000000000000000000000000000000B8
S2140063E000000000000000000000000000000000A8
S2140063F00000000000000000FFFFFFFFFFFFFFFFA0
S2140064000000000000000000000000000000000087
S2140064100000000000000000000000000000000077
S2140064200000000000000000000000000000000067
S2140064300000000000000000000000000000000057
S2140064400000000000000000000000000000000047
S2140064500000000000000000000000000000000037
S2140064600000000000000000000000000000000027
S2140064700000000000000000000000000000000017
S2140064800000000000000000000000000000000007
S21400649000000000000000000000000000000000F7
S2140064A000000000000000000000000000000000E7
S2140064B000000000000000000000000000000000D7
S2140064C000000000000000000000000000000000C7
S2140064D000000000000000000000000000000000B7
S2140064E000000000000000000000000000000000A7
S2140064F00000000000000000000000000000000097
S2140065000000FFFFFFFFFFFFFFFF0000000000008E
S2140065100000000000000000000000000000000076
S2140065200000000000000000000000000000000066
S2140065300000000000000000000000000000000056
S2140065400000000000000000000000000000000046
S2140065500000000000000000000000000000000036
S2140065600000000000000000000000000000000026
S2140065700000000000000000000000000000000016
S2140065800000000000000000000000000000000006
S21400659000000000000000000000000000000000F6
S2140065A000000000000000000000FFFFFFFFFFFFEC
S2140065B0FFFFFFFFFFFFFFFFFFFFFFFF00000000E2
S2140065C000000000000000000000000000000000C6
S2140065D000000000000000000000000000000000B6
S2140065E000000000000000000000000000000000A6
S2140065F00000000000000000000000000000000096
S2140066000000FFFFFFFFFFFFFFFFFFFFFFFFFFFF93
S214006610FFFFFFFFFFFF000000000000000000007B
S2140066200000000000000000000000000000000065
S21400663000000000000000000000FFFFFFFFFFFF5B
S214006640FFFFFFFFFFFFFFFFFFFFFFFFFFFF000053
S2140066500000000000000000000000000000000035
S2140066600000000000000000000000000000000025
S2140066700000000000000000FFFFFFFFFFFFFFFF1D
S2140066800000000000000000000000000000000005
S21400669000000000000000000000000000000000F5
S2140066A000000000000000000000000000000000E5
S2140066B000000000000000000000000000000000D5
S2140066C000000000000000000000000000000000C5
S2140066D000000000000000000000000000000000B5
S2140066E000000000000000000000000000000000A5
S2140066F00000000000000000000000000000000095
S2140067000000000000000000000000000000000084
S2140067100000000000000000000000000000000074
S2140067200000000000000000000000000000000064
S2140067300000000000000000000000000000000054
S2140067400000000000000000000000000000000044
S2140067500000000000000000000000000000000034
S2140067600000000000000000000000000000000024
S2140067700000000000000000000000000000000014
S2140067800000FFFFFFFFFFFFFFFF0000000000000C
S21400679000000000000000000000000000000000F4
S2140067A000000000000000000000000000000000E4
S2140067B000000000000000000000000000000000D4
S2140067C000000000000000000000000000000000C4
S2140067D000000000000000000000000000000000B4
S2140067E000000000000000000000000000000000A4
S2140067F00000000000000000000000000000000094
S2140068000000000000000000000000000000000083
S2140068100000000000000000000000000000000073
S21400682000000000000000000000FFFFFFFFFFFF69
S214006830FFFFFFFFFFFFFFFFFFFFFFFF000000005F
S2140068400000000000000000000000000000000043
S2140068500000000000000000000000000000000033
S2140068600000000000000000000000000000000023
S2140068700000000000000000000000000000000013
S2140068800000FFFFFFFFFFFFFFFF0000FFFFFFFF0F
S214006890FFFFFFFFFFFFFFFF0000000000000000FB
S2140068A000000000000000000000000000000000E3
S2140068B000000000000000000000FFFFFFFFFFFFD9
S2140068C0FFFFFFFFFFFFFFFFFFFFFFFFFFFF0000D1
S2140068D000000000000000000000000000000000B3
S2140068E000000000000000000000000000000000A3
S2140068F00000000000000000FFFFFFFFFFFFFFFF9B
S2140069000000000000000000000000000000000082
S2140069100000000000000000000000000000000072
S2140069200000000000000000000000000000000062
S2140069300000000000000000000000000000000052
S2140069400000000000000000000000000000000042
S2140069500000000000000000000000000000000032
S2140069600000000000000000000000000000000022
S2140069700000000000000000000000000000000012
S2140069800000000000000000000000000000000002
S21400699000000000000000000000000000000000F2
S2140069A000000000000000000000000000000000E2
S2140069B000000000000000000000000000000000D2
S2140069C000000000000000000000000000000000C2
S2140069D000000000000000000000000000000000B2
S2140069E000000000000000000000000000000000A2
S2140069F00000000000000000000000000000000092
S214006A000000FFFFFFFFFFFFFFFF00000000000089
S214006A100000000000000000000000000000000071
S214006A200000000000000000000000000000000061
S214006A300000000000000000000000000000000051
S214006A400000000000000000000000000000000041
S214006A500000000000000000000000000000000031
S214006A600000000000000000000000000000000021
S214006A700000000000000000000000000000000011
S214006A800000000000000000000000000000000001
S214006A9000000000000000000000000000000000F1
S214006AA00000000000000000FFFFFFFFFFFFFFFFE9
S214006AB0FFFFFFFFFFFFFFFFFFFFFFFFFFFF0000DF
S214006AC000000000000000000000000000000000C1
S214006AD000000000000000000000000000000000B1
S214006AE000000000000000000000000000000000A1
S214006AF00000000000000000000000000000000091
S214006B000000FFFFFFFFFFFFFFFF0000FFFFFFFF8C
S214006B10FFFFFFFFFFFFFFFF000000000000000078
S214006B200000000000000000000000000000000060
S214006B300000000000000000FFFFFFFFFFFFFFFF58
S214006B40FFFFFFFF0000FFFFFFFFFFFFFFFF00004C
S214006B500000000000000000000000000000000030
S214006B600000000000000000000000000000000020
S214006B700000000000000000FFFFFFFFFFFFFFFF18
S214006B800000000000000000000000000000000000
S214006B9000000000000000000000000000000000F0
S214006BA000000000000000000000000000000000E0
S214006BB000000000000000000000000000000000D0
S214006BC000000000000000000000000000000000C0
S214006BD000000000000000000000000000000000B0
S214006BE000000000000000000000000000000000A0
S214006BF00000000000000000000000000000000090
S214006C00000000000000000000000000000000007F
S214006C10000000000000000000000000000000006F
S214006C20000000000000000000000000000000005F
S214006C30000000000000000000000000000000004F
S214006C40000000000000000000000000000000003F
S214006C50000000000000000000000000000000002F
S214006C60000000000000000000000000000000001F
S214006C70000000000000000000000000000000000F
S214006C800000FFFFFFFFFFFFFFFF00000000000007
S214006C9000000000000000000000000000000000EF
S214006CA000000000000000000000000000000000DF
S214006CB000000000000000000000000000000000CF
S214006CC000000000000000000000000000000000BF
S214006CD000000000000000000000000000000000AF
S214006CE0000000000000000000000000000000009F
S214006CF0000000000000000000000000000000008F
S214006D00000000000000000000000000000000007E
S214006D10000000000000000000000000000000006E
S214006D200000000000000000FFFFFFFFFFFFFFFF66
S214006D30FFFF0000FFFFFFFFFFFFFFFFFFFF00005A
S214006D40000000000000000000000000000000003E
S214006D50000000000000000000000000000000002E
S214006D60000000000000000000000000000000001E
S214006D70000000000000000000000000000000000E
S214006D800000FFFFFFFFFFFFFFFF00000000FFFF08
S214006D90FFFFFFFFFFFFFFFFFFFF000000000000F8
S214006DA000000000000000000000000000000000DE
S214006DB00000000000000000FFFFFFFFFFFFFFFFD6
S214006DC0FFFF00000000FFFFFFFFFFFFFFFF0000C8
S214006DD000000000000000000000000000000000AE
S214006DE0000000000000000000000000000000009E
S214006DF00000000000000000FFFFFFFFFFFFFFFF96
S214006E00000000000000000000000000000000007D
S214006E10000000000000000000000000000000006D
S214006E20000000000000000000000000000000005D
S214006E30000000000000000000000000000000004D
S214006E40000000000000000000000000000000003D
S214006E50000000000000000000000000000000002D
S214006E60000000000000000000000000000000001D
S214006E70000000000000000000000000000000000D
S214006E8000000000000000000000000000000000FD
S214006E9000000000000000000000000000000000ED
S214006EA000000000000000000000000000000000DD
S214006EB000000000000000000000000000000000CD
S214006EC000000000000000000000000000000000BD
S214006ED000000000000000000000000000000000AD
S214006EE0000000000000000000000000000000009D
S214006EF0000000000000000000000000000000008D
S214006F000000FFFFFFFFFFFFFFFF00000000000084
S214006F10000000000000000000000000000000006C
S214006F20000000000000000000000000000000005C
S214006F30000000000000000000000000000000004C
S214006F40000000000000000000000000000000003C
S214006F50000000000000000000000000000000002C
S214006F60000000000000000000000000000000001C
S214006F70000000000000000000000000000000000C
S214006F8000000000000000000000000000000000FC
S214006F9000000000000000000000000000000000EC
S214006FA00000000000000000FFFFFFFFFFFFFFFFE4
S214006FB0FFFF0000FFFFFFFFFFFFFFFFFFFF0000D8
S214006FC000000000000000000000000000000000BC
S214006FD000000000000000000000000000000000AC
S214006FE0000000000000000000000000000000009C
S214006FF0000000000000000000000000000000008C
S2140070000000FFFFFFFFFFFFFFFF00000000000083
S214007010FFFFFFFFFFFFFFFFFFFFFFFF0000000077
S214007020000000000000000000000000000000005B
S214007030000000000000FFFFFFFFFFFFFFFFFFFF55
S214007040FFFF00000000FFFFFFFFFFFFFFFF000045
S214007050000000000000000000000000000000002B
S214007060000000000000000000000000000000001B
S2140070700000000000000000FFFFFFFFFFFFFFFF13
S21400708000000000000000000000000000000000FB
S21400709000000000000000000000000000000000EB
S2140070A000000000000000000000000000000000DB
S2140070B000000000000000000000000000000000CB
S2140070C000000000000000000000000000000000BB
S2140070D000000000000000000000000000000000AB
S2140070E0000000000000000000000000000000009B
S2140070F0000000000000000000000000000000008B
S214007100000000000000000000000000000000007A
S214007110000000000000000000000000000000006A
S214007120000000000000000000000000000000005A
S214007130000000000000000000000000000000004A
S214007140000000000000000000000000000000003A
S214007150000000000000000000000000000000002A
S214007160000000000000000000000000000000001A
S214007170000000000000000000000000000000000A
S2140071800000FFFFFFFFFFFFFFFF00000000000002
S21400719000000000000000000000000000000000EA
S2140071A000000000000000000000000000000000DA
S2140071B000000000000000000000000000000000CA
S2140071C000000000000000000000000000000000BA
S2140071D000000000000000000000000000000000AA
S2140071E0000000000000000000000000000000009A
S2140071F0000000000000000000000000000000008A
S2140072000000000000000000000000000000000079
S2140072100000000000000000000000000000000069
S214007220000000000000FFFFFFFFFFFFFFFFFFFF63
S214007230000000000000FFFFFFFFFFFFFFFFFFFF53
S2140072400000000000000000000000000000000039
S2140072500000000000000000000000000000000029
S2140072600000000000000000000000000000000019
S2140072700000000000000000000000000000000009
S2140072800000FFFFFFFFFFFFFFFF00000000000001
S214007290FFFFFFFFFFFFFFFFFFFFFFFF00000000F5
S2140072A000000000000000000000000000000000D9
S2140072B0000000000000FFFFFFFFFFFFFFFFFFFFD3
S2140072C0000000000000FFFFFFFFFFFFFFFF0000C1
S2140072D000000000000000000000000000000000A9
S2140072E00000000000000000000000000000000099
S2140072F00000000000000000FFFFFFFFFFFFFFFF91
S2140073000000000000000000000000000000000078
S2140073100000000000000000000000000000000068
S2140073200000000000000000000000000000000058
S2140073300000000000000000000000000000000048
S2140073400000000000000000000000000000000038
S2140073500000000000000000000000000000000028
S2140073600000000000000000000000000000000018
S2140073700000000000000000000000000000000008
S21400738000000000000000000000000000000000F8
S21400739000000000000000000000000000000000E8
S2140073A000000000000000000000000000000000D8
S2140073B000000000000000000000000000000000C8
S2140073C000000000000000000000000000000000B8
S2140073D000000000000000000000000000000000A8
S2140073E00000000000000000000000000000000098
S2140073F00000000000000000000000000000000088
S2140074000000FFFFFFFFFFFFFFFF0000000000007F
S2140074100000000000000000000000000000000067
S2140074200000000000000000000000000000000057
S2140074300000000000000000000000000000000047
S2140074400000000000000000000000000000000037
S2140074500000000000000000000000000000000027
S2140074600000000000000000000000000000000017
S2140074700000000000000000000000000000000007
S21400748000000000000000000000000000000000F7
S21400749000000000000000000000000000000000E7
S2140074A0000000000000FFFFFFFFFFFFFFFFFFFFE1
S2140074B0000000000000FFFFFFFFFFFFFFFFFFFFD1
S2140074C000000000000000000000000000000000B7
S2140074D000000000000000000000000000000000A7
S2140074E00000000000000000000000000000000097
S2140074F00000000000000000000000000000000087
S2140075000000FFFFFFFFFFFFFFFF0000000000007E
S2140075100000FFFFFFFFFFFFFFFFFFFFFFFF000072
S2140075200000000000000000000000000000000056
S21400753000000000FFFFFFFFFFFFFFFFFFFFFFFF52
S214007540000000000000FFFFFFFFFFFFFFFF00003E
S2140075500000000000000000000000000000000026
S2140075600000000000000000000000000000000016
S2140075700000000000000000FFFFFFFFFFFFFFFF0E
S21400758000000000000000000000000000000000F6
S21400759000000000000000000000000000000000E6
S2140075A000000000000000000000000000000000D6
S2140075B000000000000000000000000000000000C6
S2140075C000000000000000000000000000000000B6
S2140075D000000000000000000000000000000000A6
S2140075E00000000000000000000000000000000096
S2140075F00000000000000000000000000000000086
S2140076000000000000000000000000000000000075
S2140076100000000000000000000000000000000065
S2140076200000000000000000000000000000000055
S2140076300000000000000000000000000000000045
S2140076400000000000000000000000000000000035
S2140076500000000000000000000000000000000025
S2140076600000000000000000000000000000000015
S2140076700000000000000000000000000000000005
S2140076800000FFFFFFFFFFFFFFFF000000000000FD
S21400769000000000000000000000000000000000E5
S2140076A000000000000000000000000000000000D5
S2140076B000000000000000000000000000000000C5
S2140076C000000000000000000000000000000000B5
S2140076D000000000000000000000000000000000A5
S2140076E00000000000000000000000000000000095
S2140076F00000000000000000000000000000000085
S2140077000000000000000000000000000000000074
S2140077100000000000000000000000000000000064
S214007720000000000000FFFFFFFFFFFFFFFFFFFF5E
S214007730000000000000FFFFFFFFFFFFFFFFFFFF4E
S2140077400000000000000000000000000000000034
S2140077500000000000000000000000000000000024
S2140077600000000000000000000000000000000014
S2140077700000000000000000000000000000000004
S2140077800000FFFFFFFFFFFFFFFF000000000000FC
S21400779000000000FFFFFFFFFFFFFFFFFFFF0000EE
S2140077A000000000000000000000000000000000D4
S2140077B000000000FFFFFFFFFFFFFFFFFFFF0000CE
S2140077C0000000000000FFFFFFFFFFFFFFFF0000BC
S2140077D000000000000000000000000000000000A4
S2140077E00000000000000000000000000000000094
S2140077F00000000000000000FFFFFFFFFFFFFFFF8C
S2140078000000000000000000000000000000000073
S2140078100000000000000000000000000000000063
S2140078200000000000000000000000000000000053
S2140078300000000000000000000000000000000043
S2140078400000000000000000000000000000000033
S2140078500000000000000000000000000000000023
S2140078600000000000000000000000000000000013
S2140078700000000000000000000000000000000003
S21400788000000000000000000000000000000000F3
S21400789000000000000000000000000000000000E3
S2140078A000000000000000000000000000000000D3
S2140078B000000000000000000000000000000000C3
S2140078C000000000000000000000000000000000B3
S2140078D000000000000000000000000000000000A3
S2140078E00000000000000000000000000000000093
S2140078F00000000000000000000000000000000083
S2140079000000FFFFFFFFFFFFFFFF0000000000007A
S2140079100000000000000000000000000000000062
S2140079200000000000000000000000000000000052
S2140079300000000000000000000000000000000042
S2140079400000000000000000000000000000000032
S2140079500000000000000000000000000000000022
S2140079600000000000000000000000000000000012
S2140079700000000000000000000000000000000002
S21400798000000000000000000000000000000000F2
S21400799000000000000000000000000000000000E2
S2140079A000000000FFFFFFFFFFFFFFFFFFFF0000DC
S2140079B00000000000000000FFFFFFFFFFFFFFFFCA
S2140079C0FFFF0000000000000000000000000000B4
S2140079D000000000000000000000000000000000A2
S2140079E00000000000000000000000000000000092
S2140079F00000000000000000000000000000000082
S214007A000000FFFFFFFFFFFFFFFF00000000000079
S214007A1000000000FFFFFFFFFFFFFFFFFFFFFFFF6D
S214007A200000000000000000000000000000000051
S214007A300000FFFFFFFFFFFFFFFFFFFFFFFF00004D
S214007A40000000000000FFFFFFFFFFFFFFFF000039
S214007A500000000000000000000000000000000021
S214007A600000000000000000000000000000000011
S214007A700000000000000000FFFFFFFFFFFFFFFF09
S214007A8000000000000000000000000000000000F1
S214007A9000000000000000000000000000000000E1
S214007AA000000000000000000000000000000000D1
S214007AB000000000000000000000000000000000C1
S214007AC000000000000000000000000000000000B1
S214007AD000000000000000000000000000000000A1
S214007AE00000000000000000000000000000000091
S214007AF00000000000000000000000000000000081
S214007B000000000000000000000000000000000070
S214007B100000000000000000000000000000000060
S214007B200000000000000000000000000000000050
S214007B300000000000000000000000000000000040
S214007B400000000000000000000000000000000030
S214007B500000000000000000000000000000000020
S214007B600000000000000000000000000000000010
S214007B700000000000000000000000000000000000
S214007B800000FFFFFFFFFFFFFFFF000000000000F8
S214007B9000000000000000000000000000000000E0
S214007BA000000000000000000000000000000000D0
S214007BB000000000000000000000000000000000C0
S214007BC000000000000000000000000000000000B0
S214007BD000000000000000000000000000000000A0
S214007BE00000000000000000000000000000000090
S214007BF00000000000000000000000000000000080
S214007C00000000000000000000000000000000006F
S214007C10000000000000000000000000000000005F
S214007C2000000000FFFFFFFFFFFFFFFFFFFF000059
S214007C300000000000000000FFFFFFFFFFFFFFFF47
S214007C40FFFF000000000000000000000000000031
S214007C50000000000000000000000000000000001F
S214007C60000000000000000000000000000000000F
S214007C7000000000000000000000000000000000FF
S214007C800000FFFFFFFFFFFFFFFF000000000000F7
S214007C90000000000000FFFFFFFFFFFFFFFFFFFFE9
S214007CA0FFFF0000000000000000000000000000D1
S214007CB00000FFFFFFFFFFFFFFFFFFFF00000000C9
S214007CC0000000000000FFFFFFFFFFFFFFFF0000B7
S214007CD0000000000000000000000000000000009F
S214007CE0000000000000000000000000000000008F
S214007CF00000000000000000FFFFFFFFFFFFFFFF87
S214007D00000000000000000000000000000000006E
S214007D10000000000000000000000000000000005E
S214007D20000000000000000000000000000000004E
S214007D30000000000000000000000000000000003E
S214007D40000000000000000000000000000000002E
S214007D50000000000000000000000000000000001E
S214007D60000000000000000000000000000000000E
S214007D7000000000000000000000000000000000FE
S214007D8000000000000000000000000000000000EE
S214007D9000000000000000000000000000000000DE
S214007DA000000000000000000000000000000000CE
S214007DB000000000000000000000000000000000BE
S214007DC000000000000000000000000000000000AE
S214007DD0000000000000000000000000000000009E
S214007DE0000000000000000000000000000000008E
S214007DF0000000000000000000000000000000007E
S214007E000000FFFFFFFFFFFFFFFF00000000000075
S214007E10000000000000000000000000000000005D
S214007E20000000000000000000000000000000004D
S214007E30000000000000000000000000000000003D
S214007E40000000000000000000000000000000002D
S214007E50000000000000000000000000000000001D
S214007E60000000000000000000000000000000000D
S214007E7000000000000000000000000000000000FD
S214007E8000000000000000000000000000000000ED
S214007E9000000000000000000000000000000000DD
S214007EA000000000FFFFFFFFFFFFFFFFFFFF0000D7
S214007EB00000000000000000FFFFFFFFFFFFFFFFC5
S214007EC0FFFF0000000000000000000000000000AF
S214007ED0000000000000000000000000000000009D
S214007EE0000000000000000000000000000000008D
S214007EF0000000000000000000000000000000007D
S214007F000000FFFFFFFFFFFFFFFF00000000000074
S214007F10000000000000FFFFFFFFFFFFFFFFFFFF66
S214007F20FFFF00000000000000000000000000004E
S214007F30FFFFFFFFFFFFFFFFFFFFFFFF0000000048
S214007F40000000000000FFFFFFFFFFFFFFFF000034
S214007F50000000000000000000000000000000001C
S214007F60000000000000000000000000000000000C
S214007F700000000000000000FFFFFFFFFFFFFFFF04
S214007F8000000000000000000000000000000000EC
S214007F9000000000000000000000000000000000DC
S214007FA000000000000000000000000000000000CC
S214007FB000000000000000000000000000000000BC
S214007FC000000000000000000000000000000000AC
S214007FD0000000000000000000000000000000009C
S214007FE0000000000000000000000000000000008C
S214007FF0000000000000000000000000000000007C
S214008000000000000000000000000000000000006B
S214008010000000000000000000000000000000005B
S214008020000000000000000000000000000000004B
S214008030000000000000000000000000000000003B
S214008040000000000000000000000000000000002B
S214008050000000000000000000000000000000001B
S214008060000000000000000000000000000000000B
S21400807000000000000000000000000000000000FB
S2140080800000FFFFFFFFFFFFFFFF000000000000F3
S21400809000000000000000000000000000000000DB
S2140080A000000000000000000000000000000000CB
S2140080B000000000000000000000000000000000BB
S2140080C000000000000000000000000000000000AB
S2140080D0000000000000000000000000000000009B
S2140080E0000000000000000000000000000000008B
S2140080F0000000000000000000000000000000007B
S214008100000000000000000000000000000000006A
S214008110000000000000000000000000000000005A
S2140081200000FFFFFFFFFFFFFFFFFFFF0000000054
S21400813000000000000000000000FFFFFFFFFFFF40
S214008140FFFFFFFF0000000000000000000000002E
S214008150000000000000000000000000000000001A
S214008160000000000000000000000000000000000A
S21400817000000000000000000000000000000000FA
S2140081800000FFFFFFFFFFFFFFFF000000000000F2
S2140081900000000000000000FFFFFFFFFFFFFFFFE2
S2140081A0FFFFFFFF00000000000000000000FFFFD0
S2140081B0FFFFFFFFFFFFFFFFFFFF000000000000C4
S2140081C0000000000000FFFFFFFFFFFFFFFF0000B2
S2140081D0000000000000000000000000000000009A
S2140081E0000000000000000000000000000000008A
S2140081F00000000000000000FFFFFFFFFFFFFFFF82
S2140082000000000000000000000000000000000069
S2140082100000000000000000000000000000000059
S2140082200000000000000000000000000000000049
S2140082300000000000000000000000000000000039
S2140082400000000000000000000000000000000029
S2140082500000000000000000000000000000000019
S2140082600000000000000000000000000000000009
S21400827000000000000000000000000000000000F9
S21400828000000000000000000000000000000000E9
S21400829000000000000000000000000000000000D9
S2140082A000000000000000000000000000000000C9
S2140082B000000000000000000000000000000000B9
S2140082C000000000000000000000000000000000A9
S2140082D00000000000000000000000000000000099
S2140082E00000000000000000000000000000000089
S2140082F00000000000000000000000000000000079
S2140083000000FFFFFFFFFFFFFFFF00000000000070
S2140083100000000000000000000000000000000058
S2140083200000000000000000000000000000000048
S2140083300000000000000000000000000000000038
S2140083400000000000000000000000000000000028
S2140083500000000000000000000000000000000018
S2140083600000000000000000000000000000000008
S21400837000000000000000000000000000000000F8
S21400838000000000000000000000000000000000E8
S21400839000000000000000000000000000000000D8
S2140083A00000FFFFFFFFFFFFFFFFFFFF00000000D2
S2140083B000000000000000000000FFFFFFFFFFFFBE
S2140083C0FFFFFFFF000000000000000000000000AC
S2140083D00000000000000000000000000000000098
S2140083E00000000000000000000000000000000088
S2140083F00000000000000000000000000000000078
S2140084000000FFFFFFFFFFFFFFFF0000000000006F
S21400841000000000000000000000FFFFFFFFFFFF5D
S214008420FFFFFFFFFFFF0000000000000000FFFF4F
S214008430FFFFFFFFFFFFFFFFFFFF00000000000041
S214008440000000000000FFFFFFFFFFFFFFFF00002F
S2140084500000000000000000000000000000000017
S2140084600000000000000000000000000000000007
S2140084700000000000000000FFFFFFFFFFFFFFFFFF
S21400848000000000000000000000000000000000E7
S21400849000000000000000000000000000000000D7
S2140084A000000000000000000000000000000000C7
S2140084B000000000000000000000000000000000B7
S2140084C000000000000000000000000000000000A7
S2140084D00000000000000000000000000000000097
S2140084E00000000000000000000000000000000087
S2140084F00000000000000000000000000000000077
S2140085000000000000000000000000000000000066
S2140085100000000000000000000000000000000056
S2140085200000000000000000000000000000000046
S2140085300000000000000000000000000000000036
S2140085400000000000000000000000000000000026
S2140085500000000000000000000000000000000016
S2140085600000000000000000000000000000000006
S21400857000000000000000000000000000000000F6
S2140085800000FFFFFFFFFFFFFFFF000000000000EE
S21400859000000000000000000000000000000000D6
S2140085A000000000000000000000000000000000C6
S2140085B000000000000000000000000000000000B6
S2140085C000000000000000000000000000000000A6
S2140085D00000000000000000000000000000000096
S2140085E00000000000000000000000000000000086
S2140085F00000000000000000000000000000000076
S2140086000000000000000000000000000000000065
S2140086100000000000000000000000000000000055
S2140086200000FFFFFFFFFFFFFFFFFFFF000000004F
S21400863000000000000000000000FFFFFFFFFFFF3B
S214008640FFFFFFFFFFFF000000000000000000002B
S2140086500000000000000000000000000000000015
S2140086600000000000000000000000000000000005
S21400867000000000000000000000000000000000F5
S2140086800000FFFFFFFFFFFFFFFF000000000000ED
S21400869000000000000000000000FFFFFFFFFFFFDB
S2140086A0FFFFFFFFFFFF000000000000FFFFFFFFCF
S2140086B0FFFFFFFFFFFFFFFF0000000000000000BD
S2140086C0000000000000FFFFFFFFFFFFFFFF0000AD
S2140086D00000000000000000000000000000000095
S2140086E00000000000000000000000000000000085
S2140086F00000000000000000FFFFFFFFFFFFFFFF7D
S2140087000000000000000000000000000000000064
S2140087100000000000000000000000000000000054
S2140087200000000000000000000000000000000044
S2140087300000000000000000000000000000000034
S2140087400000000000000000000000000000000024
S2140087500000000000000000000000000000000014
S2140087600000000000000000000000000000000004
S21400877000000000000000000000000000000000F4
S21400878000000000000000000000000000000000E4
S21400879000000000000000000000000000000000D4
S2140087A000000000000000000000000000000000C4
S2140087B000000000000000000000000000000000B4
S2140087C000000000000000000000000000000000A4
S2140087D00000000000000000000000000000000094
S2140087E00000000000000000000000000000000084
S2140087F00000000000000000000000000000000074
S2140088000000FFFFFFFFFFFFFFFF0000000000006B
S2140088100000000000000000000000000000000053
S2140088200000000000000000000000000000000043
S2140088300000000000000000000000000000000033
S2140088400000000000000000000000000000000023
S2140088500000000000000000000000000000000013
S2140088600000000000000000000000000000000003
S21400887000000000000000000000000000000000F3
S21400888000000000000000000000000000000000E3
S21400889000000000000000000000000000000000D3
S2140088A0FFFFFFFFFFFFFFFFFFFF000000000000CD
S2140088B0000000000000000000000000FFFFFFFFB7
S2140088C0FFFFFFFFFFFF00000000000000000000A9
S2140088D00000000000000000000000000000000093
S2140088E00000000000000000000000000000000083
S2140088F00000000000000000000000000000000073
S2140089000000FFFFFFFFFFFFFFFF0000000000006A
S214008910000000000000000000000000FFFFFFFF56
S214008920FFFFFFFFFFFFFFFF00000000FFFFFFFF4E
S214008930FFFFFFFFFFFF0000000000000000000038
S214008940000000000000FFFFFFFFFFFFFFFF00002A
S2140089500000000000000000000000000000000012
S2140089600000000000000000000000000000000002
S2140089700000000000000000FFFFFFFFFFFFFFFFFA
S21400898000000000000000000000000000000000E2
S21400899000000000000000000000000000000000D2
S2140089A000000000000000000000000000000000C2
S2140089B000000000000000000000000000000000B2
S2140089C000000000000000000000000000000000A2
S2140089D00000000000000000000000000000000092
S2140089E00000000000000000000000000000000082
S2140089F00000000000000000000000000000000072
S214008A000000000000000000000000000000000061
S214008A100000000000000000000000000000000051
S214008A200000000000000000000000000000000041
S214008A300000000000000000000000000000000031
S214008A400000000000000000000000000000000021
S214008A500000000000000000000000000000000011
S214008A600000000000000000000000000000000001
S214008A7000000000000000000000000000000000F1
S214008A800000FFFFFFFFFFFFFFFF000000000000E9
S214008A9000000000000000000000000000000000D1
S214008AA000000000000000000000000000000000C1
S214008AB000000000000000000000000000000000B1
S214008AC000000000000000000000000000000000A1
S214008AD00000000000000000000000000000000091
S214008AE00000000000000000000000000000000081
S214008AF00000000000000000000000000000000071
S214008B000000000000000000000000000000000060
S214008B100000000000000000000000000000000050
S214008B20FFFFFFFFFFFFFFFFFFFF0000000000004A
S214008B30000000000000000000000000FFFFFFFF34
S214008B40FFFFFFFFFFFF0000000000000000000026
S214008B500000000000000000000000000000000010
S214008B600000000000000000000000000000000000
S214008B7000000000000000000000000000000000F0
S214008B800000FFFFFFFFFFFFFFFF000000000000E8
S214008B900000000000000000000000000000FFFFD2
S214008BA0FFFFFFFFFFFFFFFF0000FFFFFFFFFFFFCE
S214008BB0FFFFFFFFFFFF00000000000000000000B6
S214008BC0000000000000FFFFFFFFFFFFFFFF0000A8
S214008BD00000000000000000000000000000000090
S214008BE00000000000000000000000000000000080
S214008BF00000000000000000FFFFFFFFFFFFFFFF78
S214008C00000000000000000000000000000000005F
S214008C10000000000000000000000000000000004F
S214008C20000000000000000000000000000000003F
S214008C30000000000000000000000000000000002F
S214008C40000000000000000000000000000000001F
S214008C50000000000000000000000000000000000F
S214008C6000000000000000000000000000000000FF
S214008C7000000000000000000000000000000000EF
S214008C8000000000000000000000000000000000DF
S214008C9000000000000000000000000000000000CF
S214008CA000000000000000000000000000000000BF
S214008CB000000000000000000000000000000000AF
S214008CC0000000000000000000000000000000009F
S214008CD0000000000000000000000000000000008F
S214008CE0000000000000000000000000000000007F
S214008CF0000000000000000000000000000000006F
S214008D000000FFFFFFFFFFFFFFFF00000000000066
S214008D10000000000000000000000000000000004E
S214008D20000000000000000000000000000000003E
S214008D30000000000000000000000000000000002E
S214008D40000000000000000000000000000000001E
S214008D50000000000000000000000000000000000E
S214008D6000000000000000000000000000000000FE
S214008D7000000000000000000000000000000000EE
S214008D8000000000000000000000000000000000DE
S214008D9000000000000000000000000000000000CE
S214008DA0FFFFFFFFFFFFFFFFFFFF000000000000C8
S214008DB00000000000000000000000000000FFFFB0
S214008DC0FFFFFFFFFFFFFFFF0000000000000000A6
S214008DD0000000000000000000000000000000008E
S214008DE0000000000000000000000000000000007E
S214008DF0000000000000000000000000000000006E
S214008E000000FFFFFFFFFFFFFFFF00000000000065
S214008E100000000000000000000000000000FFFF4F
S214008E20FFFFFFFFFFFFFFFFFFFFFFFFFFFFFFFF4D
S214008E30FFFFFFFF00000000000000000000000031
S214008E40000000000000FFFFFFFFFFFFFFFF000025
S214008E50000000000000000000000000000000000D
S214008E6000000000000000000000000000000000FD
S214008E700000000000000000FFFFFFFFFFFFFFFFF5
S214008E8000000000000000000000000000000000DD
S214008E9000000000000000000000000000000000CD
S214008EA000000000000000000000000000000000BD
S214008EB000000000000000000000000000000000AD
S214008EC0000000000000000000000000000000009D
S214008ED0000000000000000000000000000000008D
S214008EE0000000000000000000000000000000007D
S214008EF0000000000000000000000000000000006D
S214008F00000000000000000000000000000000005C
S214008F10000000000000000000000000000000004C
S214008F20000000000000000000000000000000003C
S214008F30000000000000000000000000000000002C
S214008F40000000000000000000000000000000001C
S214008F50000000000000000000000000000000000C
S214008F6000000000000000000000000000000000FC
S214008F7000000000000000000000000000000000EC
S214008F800000FFFFFFFFFFFFFFFF000000000000E4
S214008F9000000000000000000000000000000000CC
S214008FA000000000000000000000000000000000BC
S214008FB000000000000000000000000000000000AC
S214008FC0000000000000000000000000000000009C
S214008FD0000000000000000000000000000000008C
S214008FE0000000000000000000000000000000007C
S214008FF0000000000000000000000000000000006C
S214009000000000000000000000000000000000005B
S2140090100000000000000000000000000000FFFF4D
S214009020FFFFFFFFFFFFFFFF000000000000000043
S2140090300000000000000000000000000000FFFF2D
S214009040FFFFFFFFFFFFFFFF000000000000000023
S214009050000000000000000000000000000000000B
S21400906000000000000000000000000000000000FB
S21400907000000000000000000000000000000000EB
S2140090800000FFFFFFFFFFFFFFFF000000000000E3
S21400909000000000000000000000000000000000CB
S2140090A0FFFFFFFFFFFFFFFFFFFFFFFFFFFFFFFFCB
S2140090B0FFFFFFFF000000000000000000000000AF
S2140090C0000000000000FFFFFFFFFFFFFFFF0000A3
S2140090D0000000000000000000000000000000008B
S2140090E0000000000000000000000000000000007B
S2140090F00000000000000000FFFFFFFFFFFFFFFF73
S214009100000000000000000000000000000000005A
S214009110000000000000000000000000000000004A
S214009120000000000000000000000000000000003A
S214009130000000000000000000000000000000002A
S214009140000000000000000000000000000000001A
S214009150000000000000000000000000000000000A
S21400916000000000000000000000000000000000FA
S21400917000000000000000000000000000000000EA
S21400918000000000000000000000000000000000DA
S21400919000000000000000000000000000000000CA
S2140091A000000000000000000000000000000000BA
S2140091B000000000000000000000000000000000AA
S2140091C0000000000000000000000000000000009A
S2140091D0000000000000000000000000000000008A
S2140091E0000000000000000000000000000000007A
S2140091F0000000000000000000000000000000006A
S2140092000000FFFFFFFFFFFFFFFF00000000000061
S2140092100000000000000000000000000000000049
S2140092200000000000000000000000000000000039
S2140092300000000000000000000000000000000029
S2140092400000000000000000000000000000000019
S2140092500000000000000000000000000000000009
S21400926000000000000000000000000000000000F9
S21400927000000000000000000000000000000000E9
S21400928000000000000000000000000000000000D9
S2140092900000000000000000000000000000FFFFCB
S2140092A0FFFFFFFFFFFFFFFF0000000000000000C1
S2140092B00000000000000000000000000000FFFFAB
S2140092C0FFFFFFFFFFFFFFFF0000000000000000A1
S2140092D00000000000000000000000000000000089
S2140092E00000000000000000000000000000000079
S2140092F00000000000000000000000000000000069
S2140093000000FFFFFFFFFFFFFFFF00000000000060
S2140093100000000000000000000000000000000048
S214009320FFFFFFFFFFFFFFFFFFFFFFFFFFFFFFFF48
S214009330FFFF00000000000000000000000000002A
S214009340000000000000FFFFFFFFFFFFFFFF000020
S2140093500000000000000000000000000000000008
S21400936000000000000000000000000000000000F8
S2140093700000000000000000FFFFFFFFFFFFFFFFF0
S21400938000000000000000000000000000000000D8
S21400939000000000000000000000000000000000C8
S2140093A000000000000000000000000000000000B8
S2140093B000000000000000000000000000000000A8
S2140093C00000000000000000000000000000000098
S2140093D00000000000000000000000000000000088
S2140093E00000000000000000000000000000000078
S2140093F00000000000000000000000000000000068
S2140094000000000000000000000000000000000057
S2140094100000000000000000000000000000000047
S2140094200000000000000000000000000000000037
S2140094300000000000000000000000000000000027
S2140094400000000000000000000000000000000017
S2140094500000000000000000000000000000000007
S21400946000000000000000000000000000000000F7
S21400947000000000000000000000000000000000E7
S2140094800000FFFFFFFFFFFFFFFF000000000000DF
S21400949000000000000000000000000000000000C7
S2140094A000000000000000000000000000000000B7
S2140094B000000000000000000000000000000000A7
S2140094C00000000000000000000000000000000097
S2140094D00000000000000000000000000000000087
S2140094E00000000000000000000000000000000077
S2140094F00000000000000000000000000000000067
S2140095000000000000000000000000000000000056
S2140095100000000000000000000000000000FFFF48
S214009520FFFFFFFFFFFFFFFF00000000000000003E
S2140095300000000000000000000000000000000026
S214009540FFFFFFFFFFFFFFFFFFFF00000000000020
S2140095500000000000000000000000000000000006
S21400956000000000000000000000000000000000F6
S21400957000000000000000000000000000000000E6
S2140095800000FFFFFFFFFFFFFFFF000000000000DE
S21400959000000000000000000000000000000000C6
S2140095A00000FFFFFFFFFFFFFFFFFFFFFFFFFFFFC4
S2140095B0FFFF0000000000000000000000000000A8
S2140095C0000000000000FFFFFFFFFFFFFFFF00009E
S2140095D00000000000000000000000000000000086
S2140095E00000000000000000000000000000000076
S2140095F00000000000000000FFFFFFFFFFFFFFFF6E
S2140096000000000000000000000000000000000055
S2140096100000000000000000000000000000000045
S2140096200000000000000000000000000000000035
S2140096300000000000000000000000000000000025
S2140096400000000000000000000000000000000015
S2140096500000000000000000000000000000000005
S21400966000000000000000000000000000000000F5
S21400967000000000000000000000000000000000E5
S21400968000000000000000000000000000000000D5
S21400969000000000000000000000000000000000C5
S2140096A000000000000000000000000000000000B5
S2140096B000000000000000000000000000000000A5
S2140096C00000000000000000000000000000000095
S2140096D00000000000000000000000000000000085
S2140096E00000000000000000000000000000000075
S2140096F00000000000000000000000000000000065
S2140097000000FFFFFFFFFFFFFFFF0000000000005C
S2140097100000000000000000000000000000000044
S2140097200000000000000000000000000000000034
S2140097300000000000000000000000000000000024
S2140097400000000000000000000000000000000014
S2140097500000000000000000000000000000000004
S21400976000000000000000000000000000000000F4
S21400977000000000000000000000000000000000E4
S21400978000000000000000000000000000000000D4
S214009790000000000000000000000000FFFFFFFFC8
S2140097A0FFFFFFFFFFFF00000000000000000000BA
S2140097B000000000000000000000000000000000A4
S2140097C0FFFFFFFFFFFFFFFFFFFF0000000000009E
S2140097D00000000000000000000000000000000084
S2140097E00000000000000000000000000000000074
S2140097F00000000000000000000000000000000064
S2140098000000FFFFFFFFFFFFFFFF0000000000005B
S2140098100000000000000000000000000000000043
S21400982000000000FFFFFFFFFFFFFFFFFFFFFFFF3F
S2140098300000000000000000000000000000000023
S214009840000000000000FFFFFFFFFFFFFFFF00001B
S2140098500000000000000000000000000000000003
S21400986000000000000000000000000000000000F3
S2140098700000000000000000FFFFFFFFFFFFFFFFEB
S21400988000000000000000000000000000000000D3
S21400989000000000000000000000000000000000C3
S2140098A000000000000000000000000000000000B3
S2140098B000000000000000000000000000000000A3
S2140098C00000000000000000000000000000000093
S2140098D00000000000000000000000000000000083
S2140098E00000000000000000000000000000000073
S2140098F00000000000000000000000000000000063
S2140099000000000000000000000000000000000052
S2140099100000000000000000000000000000000042
S2140099200000000000000000000000000000000032
S2140099300000000000000000000000000000000022
S2140099400000000000000000000000000000000012
S2140099500000000000000000000000000000000002
S21400996000000000000000000000000000000000F2
S21400997000000000000000000000000000000000E2
S2140099800000FFFFFFFFFFFFFFFF000000000000DA
S21400999000000000000000000000000000000000C2
S2140099A000000000000000000000000000000000B2
S2140099B000000000000000000000000000000000A2
S2140099C00000000000000000000000000000000092
S2140099D00000000000000000000000000000000082
S2140099E00000000000000000000000000000000072
S2140099F00000000000000000000000000000000062
S214009A000000000000000000000000000000000051
S214009A10000000000000000000000000FFFFFFFF45
S214009A20FFFFFFFFFFFF0000000000000000000037
S214009A300000000000000000000000000000000021
S214009A40FFFFFFFFFFFFFFFFFFFF0000000000001B
S214009A500000000000000000000000000000000001
S214009A6000000000000000000000000000000000F1
S214009A7000000000000000000000000000000000E1
S214009A800000FFFFFFFFFFFFFFFF000000000000D9
S214009A9000000000000000000000000000000000C1
S214009AA000000000FFFFFFFFFFFFFFFFFFFFFFFFBD
S214009AB000000000000000000000000000000000A1
S214009AC0000000000000FFFFFFFFFFFFFFFF000099
S214009AD00000000000000000000000000000000081
S214009AE00000000000000000000000000000000071
S214009AF00000000000000000FFFFFFFFFFFFFFFF69
S214009B000000000000000000000000000000000050
S214009B100000000000000000000000000000000040
S214009B200000000000000000000000000000000030
S214009B300000000000000000000000000000000020
S214009B400000000000000000000000000000000010
