S011000046696E616C50726F6A2E737265638E
S21400000018F09FE518F09FE518F09FE518F09FE5BB
S21400001018F09FE518F09FE518F09FE518F09FE5AB
S214000020300A0000340A0000380A00003C0A0000CB
S214000030400A000054660200F0090000440A00006E
S214000040260000EA8C609FE5000056E380402DE91C
S214000050016046E21E00000A7C509FE50000A0E317
S2140000600010A0E30C2015E510E015E5084015E5A6
S21400007002005EE1042082000900000A000054E34A
S2140000800700000A0270A0E102C0A0E10C00BEE872
S2140000900C00ACE80C3067E0030054E10C20A0E153
S2140000A0F9FFFF1A04E015E500005EE30230A01138
S2140000B00300000A0300A3E803C062E00C005EE150
S2140000C0FBFFFF1A016046E2010076E3145085E26A
S2140000D0E3FFFF1A459900EB010000003C670200B1
S2140000E03C108FE21600A0E3563412EF000050E3F7
S2140000F0080000BA28209FE51CD09FE5080092E57E
S214000100000050E300D0A01110109FE5040092E517
S214000110000050E300008115C9FFFFEAF8FFFF3F2B
S214000120B86B0200F86B020000D01FE5C4FFFFEAC0
S214000130F8FFFF3F08402DE92C009FE52C309FE597
S214000140033060E0060053E30100008A0840BDE883
S2140001501EFF2FE118309FE5000053E3FAFFFF0A69
S2140001600FE0A0E113FF2FE1F7FFFFEAC06B0200EC
S214000170C36B02000000000008402DE934009FE534
S21400018034309FE5033060E04331A0E1A33F83E0D5
S214000190C310B0E10100001A0840BDE81EFF2FE1C1
S2140001A018209FE5000052E3FAFFFF0A0FE0A0E1E7
S2140001B012FF2FE1F7FFFFEAC06B0200C06B0200E0
S2140001C00000000010402DE92C409FE50030D4E5EB
S2140001D0000053E30600001AD5FFFFEB1C309FE536
S2140001E0000053E318009F1500F020130130A0E331
S2140001F00030C4E51040BDE81EFF2FE1C06B0200D2
S21400020000000000E066020008402DE934309FE55B
S214000210000053E330009F1530109F1500F02013A8
S2140002202C009FE5003090E5000053E30300000A31
S21400023020309FE5000053E30FE0A01113FF2F11BD
S2140002400840BDE8CBFFFFEA00000000E0660200C1
S214000250C46B0200406702000000000010402DE959
S214000260484706E3024040E34B3FA0E3003084E506
S214000270053DA0E3043084E50F9800EBE33906E380
S2140002808F3B4AE39320C3E0003083E0C02FA0E119
S214000290C33362E0832083E0023363E0000063E060
S2140002A0080084E5049800EBFD300BE3483941E391
S2140002B09320C3E0C02FA0E1C33162E0833183E026
S2140002C0833183E0000063E0280080E2082094E5A4
S2140002D0020080E00C0084E5DC3B06E3023040E3ED
S2140002E00020A0E30020C3E5042083E51080BDE8DD
S2140002F0003090E5002091E5002080E5003081E5A3
S2140003001EFF2FE1FF3F03E3203F4FE30120A0E362
S214000310DF2F03E5D33F13E5010013E31EFF2F0194
S214000320FF2F03E3202F4FE3D33F12E5010013E333
S214000330FCFFFF1A1EFF2FE1DC3B06E3023040E322
S214000340083093E58000A0E1011583E0B02081E14C
S2140003501EFF2FE1F04F2DE914D04DE20C008DE585
S21400036008108DE504208DE500308DE5033061E052
S214000370000053E3003063B2022060E0C28F22E048
S214000380C28F48E0080053E10080A0D30180A0C3DC
S214000390000058E30500000A0C008DE208108DE20C
S2140003A0D2FFFFEB04008DE20D10A0E1CFFFFFEBC4
S2140003B004309DE50C209DE5030052E1050000DABF
S2140003C00C008DE204108DE2C8FFFFEB08008DE202
S2140003D00D10A0E1C5FFFFEB04309DE50C509DE538
S2140003E0039065E000209DE508609DE5027066E0EC
S2140003F0000057E3007067B2A94F89E0C440A0E14F
S214000400004064E2060052E100B0E0D301B0A0C3B1
S214000410050053E10E0000BAF8A3DDE1000058E342
S2140004200600A0110510A0110500A0010610A001ED
S2140004300A20A0E1BFFFFFEB074094E00B60865068
S21400044004406950015085E204309DE5050053E103
S214000450F1FFFFAA14D08DE2F08FBDE870402DE9C1
S2140004600050A0E30560A0E1090000EA0400A0E156
S2140004700510A0E10620A0E1AEFFFFEB014084E2FC
S214000480050D54E3F8FFFF1A015085E2F00055E32E
S2140004907080BD080640A0E1F3FFFFEA38402DE972
S2140004A0483706E3023040E3EE20A0E3102083E561
S2140004B0DC2B06E3022040E30010A0E30C1082E5EC
S2140004C04B0FA0E3000083E5050DA0E3040083E5E1
S2140004D03200A0E3080083E56400A0E30C0083E597
S2140004E0041082E5101082E50240A0E10150A0E170
S2140004F048EA00E300E040E3120000EAB210F2E14E
S214000500B210C3E0000053E1FBFFFF1A01C08CE20B
S214000510F0005CE30100001A0A0000EA05C0A0E152
S2140005208C04A0E10C218CE082238EE0022042E2C3
S2140005300C35A0E1323383E2190380E2050D80E238
S2140005408000A0E1ECFFFFEA143094E5000053E3DE
S214000550F1FFFF1AC0FFFFEB3880BDE8D230A0E302
S21400056003F029E10730E0E303D0A0E1D330A0E3B5
S21400057003F029E11EFF2FE1123AE0E30124A0E395
S2140005803B2703E58020A0E3E72E03E5812082E2F7
S214000590B72703E5032CA0E3F72E03E5131AE0E3E1
S2140005A0FF2F0FE3FB2E01E50120A0E3FF2E01E560
S2140005B0FF2F03E51EFF2FE15330A0E303F029E1F0
S2140005C01EFF2FE10030A0E3203F4FE30320A0E30F
S2140005D0582083E51EFF2FE1023AA0E3203F4FE3B9
S2140005E0402204E3082083E50F20A0E30C2083E5E7
S2140005F00720A0E3042083E51EFF2FE1F0472DE946
S21400060008D04DE2D4FFFFEBDAFFFFEBECFFFFEB89
S214000610F0FFFFEBE7FFFFEBFF3F03E3203F4FE377
S214000620DF2F13E5DC3B06E3023040E3082083E5DA
S21400063089FFFFEB483706E3023040E3103093E5CE
S2140006401F20A0E300208DE52800A0E30310A0E112
S2140006506420A0E33EFFFFEBDC6B06E3026040E3B2
S214000660485706E3025040E30080A0E3FF7700E32C
S21400067001A0A0E3143096E5000053E30000000A52
S21400068085FFFFEB0030D6E5000053E33900001A83
S214000690089095E50C3095E5030059E1140000AA92
S2140006A0043096E5004095E5044063E0042095E5B7
S2140006B0023063E0030054E1090000AA0400A0E150
S2140006C00910A0E10820A0E11AFFFFEB014084E238
S2140006D0042095E5043096E5023063E0040053E11B
S2140006E0F5FFFFCA019089E20C3095E5090053E159
S2140006F0EAFFFFCA043096E5023083E2043086E55E
S214000700042095E5023063E0000053E300A0C6B580
S214000710089095E50C3095E5030059E1160000AA0F
S214000720043096E5004095E5044063E0042095E536
S214000730023063E0030054E1090000AA0400A0E1CF
S2140007400910A0E10720A0E1FAFEFFEB014084E2D9
S214000750042095E5043096E5023063E0040053E19A
S214000760F5FFFFCA019089E20C3095E5090053E1D8
S214000770EAFFFFCA000000EAB7FEFFEBE0FEFFEB71
S214000780BBFFFFEA0030A0E3203F4FE35C2093E589
S214000790DC3B06E3023040E30C3093E5010073E3F4
S2140007A00400001ADC3B06E3023040E30110A0E33D
S2140007B00C1083E5150000EA010053E30400001A5C
S2140007C0DC3B06E3023040E30010E0E30C1083E578
S2140007D00E0000EA483706E3023040E3103093E5A7
S2140007E0ED0053E3040000DADC3B06E3023040E3AE
S2140007F00010E0E30C1083E5040000EA000053E379
S214000800DC3B06D3023040D30110A0D30C1083D5B6
S214000810DC3B06E3023040E3143093E5000053E38C
S214000820DC3B0613023040130010A013141083158F
S2140008300030A0E3203F4FE35C2083E51EFF2FE15E
S214000840F0412DE908D04DE2023AA0E3203F4FE305
S2140008500020A0E3002083E5DC3B06E3023040E313
S214000860143093E5020053E15E00001ADC5B06E3F9
S214000870025040E3103095E5013083E2103085E504
S214000880AD2B08E3DB2846E39213C2E0C31FA0E1CA
S214000890422661E0D30D04E3620041E39083C0E0AA
S2140008A0400361E009C0E0E39C0220E0484706E31D
S2140008B0024040E3146094E500E184E018E09EE521
S2140008C0027184E0187097E50778A0E10E7487E15E
S2140008D01FE508E3EBE145E39E83C3E0C31261E056
S2140008E06330E0E3930202E09C2020E0011080E009
S2140008F0011184E0182091E5023087E1003086E59A
S214000900103094E50020A0E300208DE52800A0E349
S2140009100310A0E16420A0E38DFEFFEB102094E519
S2140009200C3095E5033082E0103084E5ED0053E3AB
S2140009300010A0C30C1085C5040000CA000053E3D5
S214000940DC2B06D3022040D30010A0D30C1082D597
S214000950DC2B06E3022040E3041092E5482706E37A
S214000960022040E3002092E5022061E0282042E2D7
S2140009703C0052E30600009A482706E3022040E3C4
S214000980042092E5021061E0281041E23C0051E3A9
S2140009900E00008A482706E3022040E3082092E57E
S2140009A0020053E1090000BA482706E3022040E3AC
S2140009B00C2092E5020053E1040000CADC3B06E38B
S2140009C0023040E30120A0E3142083E5050000EA9E
S2140009D01F20A0E300208DE52800A0E30310A0E17F
S2140009E06420A0E35AFEFFEB08D08DE2F081BDE85C
S2140009F004E04EE23F502DE9133AE0E3F34E13E5F0
S214000A00490054E30100001A5DFFFFEB040000EA12
S214000A10480054E30100001A88FFFFEB000000EADC
S214000A20FEFFFFEA133AE0E3EF4E03E53F90FDE8F2
S214000A30FEFFFFEAFEFFFFEAFEFFFFEAFEFFFFEA19
S214000A40FEFFFFEAFEFFFFEA0400051E00000000AE
S214000A500000000000000000000000000000000091
S214000A600000000000000000000000000000000081
S214000A700000000000000000000000000000000071
S214000A800000000000000000000000000000000061
S214004D100000000000000000FFFFFFFFFFFFFFFF96
S214004D20FFFFFFFFFFFFFFFFFFFFFFFFFFFFFFFF8E
S214004D30FFFFFFFFFFFFFFFFFFFFFFFFFFFFFFFF7E
S214004D40FFFFFFFFFFFFFFFFFFFFFFFFFFFFFFFF6E
S214004D50FFFFFFFFFFFFFFFFFFFFFFFFFFFFFFFF5E
S214004D60FFFFFFFFFFFFFFFFFFFFFFFFFFFF00004C
S214004D70000000000000000000000000000000002E
S214004D80000000000000000000000000000000001E
S214004D90000000000000000000000000000000000E
S214004DA000000000000000000000000000000000FE
S214004DB000000000000000000000000000000000EE
S214004DC000000000000000000000000000000000DE
S214004DD000000000000000000000000000000000CE
S214004DE000000000000000000000000000000000BE
S214004DF000000000000000000000000000000000AE
S214004E00000000000000000000000000000000009D
S214004E10000000000000000000000000000000008D
S214004E20000000000000000000000000000000007D
S214004E30000000000000000000000000000000006D
S214004E40000000000000000000000000000000005D
S214004E50000000000000000000000000000000004D
S214004E60000000000000000000000000000000003D
S214004E70000000000000000000000000000000002D
S214004E80000000000000000000000000000000001D
S214004E90000000000000000000000000000000000D
S214004EA000000000000000000000000000000000FD
S214004EB000000000000000000000000000000000ED
S214004EC000000000000000000000000000000000DD
S214004ED000000000000000000000000000000000CD
S214004EE000000000000000000000000000000000BD
S214004EF000000000000000000000000000000000AD
S214004F00000000000000000000000000000000009C
S214004F10000000000000000000000000000000008C
S214004F20000000000000000000000000000000007C
S214004F30000000000000000000000000000000006C
S214004F40000000000000000000000000000000005C
S214004F50000000000000000000000000000000004C
S214004F6000000000FFFFFFFFFFFFFFFFFFFF000046
S214004F70000000000000000000000000000000002C
S214004F80000000000000000000000000000000001C
S214004F900000000000000000FFFFFFFFFFFFFFFF14
S214004FA0FFFFFFFFFFFFFFFFFFFFFFFFFFFFFFFF0C
S214004FB0FFFFFFFFFFFFFFFFFFFFFFFFFFFFFFFFFC
S214004FC0FFFFFFFFFFFFFFFFFFFFFFFFFFFFFFFFEC
S214004FD0FFFFFFFFFFFFFFFFFFFFFFFFFFFFFFFFDC
S214004FE0FFFFFFFFFFFFFFFFFFFFFFFFFFFF0000CA
S214004FF000000000000000000000000000000000AC
S214005000000000000000000000000000000000009B
S214005010000000000000000000000000000000008B
S214005020000000000000000000000000000000007B
S214005030000000000000000000000000000000006B
S214005040000000000000000000000000000000005B
S214005050000000000000000000000000000000004B
S214005060000000000000000000000000000000003B
S214005070000000000000000000000000000000002B
S214005080000000000000000000000000000000001B
S214005090000000000000000000000000000000000B
S2140050A000000000000000000000000000000000FB
S2140050B000000000000000000000000000000000EB
S2140050C000000000000000000000000000000000DB
S2140050D000000000000000000000000000000000CB
S2140050E000000000000000000000000000000000BB
S2140050F000000000000000000000000000000000AB
S214005100000000000000000000000000000000009A
S214005110000000000000000000000000000000008A
S214005120000000000000000000000000000000007A
S214005130000000000000000000000000000000006A
S214005140000000000000000000000000000000005A
S214005150000000000000000000000000000000004A
S214005160000000000000000000000000000000003A
S214005170000000000000000000000000000000002A
S214005180000000000000000000000000000000001A
S214005190000000000000000000000000000000000A
S2140051A00000FFFFFFFFFFFFFFFFFFFF0000000004
S2140051B000000000000000000000000000000000EA
S2140051C000000000000000000000000000000000DA
S2140051D000000000000000000000000000000000CA
S2140051E000000000FFFFFFFFFFFFFFFFFFFF0000C4
S2140051F000000000000000000000000000000000AA
S2140052000000000000000000000000000000000099
S2140052100000000000000000FFFFFFFFFFFFFFFF91
S214005220FFFFFFFFFFFFFFFFFFFFFFFFFFFFFFFF89
S214005230FFFFFFFFFFFFFFFFFFFFFFFFFFFFFFFF79
S214005240FFFFFFFFFFFFFFFFFFFFFFFFFFFFFFFF69
S214005250FFFFFFFFFFFFFFFFFFFFFFFFFFFFFFFF59
S214005260FFFFFFFFFFFFFFFFFFFFFFFFFFFF000047
S2140052700000000000000000000000000000000029
S2140052800000000000000000000000000000000019
S2140052900000000000000000000000000000000009
S2140052A000000000000000000000000000000000F9
S2140052B000000000000000000000000000000000E9
S2140052C000000000000000000000000000000000D9
S2140052D000000000000000000000000000000000C9
S2140052E000000000000000000000000000000000B9
S2140052F000000000000000000000000000000000A9
S2140053000000000000000000000000000000000098
S2140053100000000000000000000000000000000088
S2140053200000000000000000000000000000000078
S2140053300000000000000000000000000000000068
S2140053400000000000000000000000000000000058
S2140053500000000000000000000000000000000048
S2140053600000000000000000000000000000000038
S2140053700000000000000000000000000000000028
S2140053800000000000000000000000000000000018
S2140053900000000000000000000000000000000008
S2140053A000000000000000000000000000000000F8
S2140053B000000000000000000000000000000000E8
S2140053C00000000000000000000000000000FFFFDA
S2140053D0FFFFFFFFFFFFFFFF0000000000000000D0
S2140053E000000000000000000000000000000000B8
S2140053F000000000000000000000000000000000A8
S2140054000000000000000000000000000000000097
S2140054100000000000000000000000000000000087
S2140054200000FFFFFFFFFFFFFFFFFFFFFFFF000083
S2140054300000000000000000000000000000000067
S2140054400000000000000000000000000000000057
S2140054500000000000000000000000000000000047
S2140054600000FFFFFFFFFFFFFFFFFFFFFFFF000043
S2140054700000000000000000000000000000000027
S2140054800000000000000000000000000000000017
S2140054900000000000000000FFFFFFFFFFFFFFFF0F
S2140054A0FFFFFFFFFFFFFFFFFFFFFFFFFFFFFFFF07
S2140054B0FFFFFFFFFFFFFFFFFFFFFFFFFFFFFFFFF7
S2140054C0FFFFFFFFFFFFFFFFFFFFFFFFFFFFFFFFE7
S2140054D0FFFFFFFFFFFFFFFFFFFFFFFFFFFFFFFFD7
S2140054E0FFFFFFFFFFFFFFFFFFFFFFFFFFFF0000C5
S2140054F000000000000000000000000000000000A7
S2140055000000000000000000000000000000000096
S2140055100000000000000000000000000000000086
S2140055200000000000000000000000000000000076
S2140055300000000000000000000000000000000066
S2140055400000000000000000000000000000000056
S2140055500000000000000000000000000000000046
S2140055600000000000000000000000000000000036
S2140055700000000000000000000000000000000026
S2140055800000000000000000000000000000000016
S2140055900000000000000000000000000000000006
S2140055A00000FFFFFFFFFFFFFFFFFFFFFFFFFFFF04
S2140055B0FFFFFFFFFFFFFFFFFFFFFFFFFFFFFFFFF6
S2140055C0FFFFFFFFFFFFFFFFFFFFFFFFFFFFFFFFE6
S2140055D0FFFFFFFFFFFFFFFFFFFFFFFFFFFFFFFFD6
S2140055E0FFFFFFFFFFFFFFFFFFFFFFFFFFFFFFFFC6
S2140055F0FFFFFFFFFFFFFFFFFFFFFFFFFFFF0000B4
S2140056000000000000000000000000000000000095
S2140056100000000000000000000000000000000085
S2140056200000000000000000000000000000000075
S2140056300000000000000000000000000000000065
S2140056400000000000000000000000000000FFFF57
S214005650FFFFFFFFFFFFFFFF00000000000000004D
S2140056600000000000000000000000000000000035
S2140056700000000000000000000000000000000025
S2140056800000000000000000000000000000000015
S2140056900000000000000000000000000000000005
S2140056A00000FFFFFFFFFFFFFFFFFFFFFFFF000001
S2140056B000000000000000000000000000000000E5
S2140056C000000000000000000000000000000000D5
S2140056D000000000000000000000000000000000C5
S2140056E00000FFFFFFFFFFFFFFFFFFFFFFFF0000C1
S2140056F000000000000000000000000000000000A5
S2140057000000000000000000000000000000000094
S2140057100000000000000000FFFFFFFFFFFFFFFF8C
S2140057200000000000000000000000000000000074
S2140057300000000000000000000000000000000064
S2140057400000000000000000000000000000000054
S2140057500000000000000000000000000000000044
S2140057600000000000000000000000000000000034
S2140057700000000000000000000000000000000024
S2140057800000000000000000000000000000000014
S2140057900000000000000000000000000000000004
S2140057A000000000000000000000000000000000F4
S2140057B000000000000000000000000000000000E4
S2140057C000000000000000000000000000000000D4
S2140057D000000000000000000000000000000000C4
S2140057E000000000000000000000000000000000B4
S2140057F000000000000000000000000000000000A4
S2140058000000000000000000000000000000000093
S2140058100000000000000000000000000000000083
S2140058200000FFFFFFFFFFFFFFFFFFFFFFFFFFFF81
S214005830FFFFFFFFFFFFFFFFFFFFFFFFFFFFFFFF73
S214005840FFFFFFFFFFFFFFFFFFFFFFFFFFFFFFFF63
S214005850FFFFFFFFFFFFFFFFFFFFFFFFFFFFFFFF53
S214005860FFFFFFFFFFFFFFFFFFFFFFFFFFFFFFFF43
S214005870FFFFFFFFFFFFFFFFFFFFFFFFFFFF000031
S2140058800000000000000000000000000000000013
S2140058900000000000000000000000000000000003
S2140058A000000000000000000000000000000000F3
S2140058B000000000000000000000000000000000E3
S2140058C00000000000000000000000000000FFFFD5
S2140058D0FFFFFFFFFFFFFFFF0000000000000000CB
S2140058E000000000000000000000000000000000B3
S2140058F000000000000000000000000000000000A3
S2140059000000000000000000000000000000000092
S2140059100000000000000000000000000000000082
S2140059200000FFFFFFFFFFFFFFFFFFFFFFFFFFFF80
S2140059300000000000000000000000000000000062
S2140059400000000000000000000000000000000052
S2140059500000000000000000000000000000000042
S214005960FFFFFFFFFFFFFFFFFFFFFFFFFFFF000040
S2140059700000000000000000000000000000000022
S2140059800000000000000000000000000000000012
S2140059900000000000000000FFFFFFFFFFFFFFFF0A
S2140059A000000000000000000000000000000000F2
S2140059B000000000000000000000000000000000E2
S2140059C000000000000000000000000000000000D2
S2140059D000000000000000000000000000000000C2
S2140059E000000000000000000000000000000000B2
S2140059F000000000000000000000000000000000A2
S214005A000000000000000000000000000000000091
S214005A100000000000000000000000000000000081
S214005A200000000000000000000000000000000071
S214005A300000000000000000000000000000000061
S214005A400000000000000000000000000000000051
S214005A500000000000000000000000000000000041
S214005A600000000000000000000000000000000031
S214005A700000000000000000000000000000000021
S214005A800000000000000000000000000000000011
S214005A900000000000000000000000000000000001
S214005AA00000FFFFFFFFFFFFFFFFFFFFFFFFFFFFFF
S214005AB0FFFFFFFFFFFFFFFFFFFFFFFFFFFFFFFFF1
S214005AC0FFFFFFFFFFFFFFFFFFFFFFFFFFFFFFFFE1
S214005AD0FFFFFFFFFFFFFFFFFFFFFFFFFFFFFFFFD1
S214005AE0FFFFFFFFFFFFFFFFFFFFFFFFFFFFFFFFC1
S214005AF0FFFFFFFFFFFFFFFFFFFFFFFFFFFF0000AF
S214005B000000000000000000000000000000000090
S214005B100000000000000000000000000000000080
S214005B200000000000000000000000000000000070
S214005B300000000000000000000000000000000060
S214005B400000000000000000000000000000FFFF52
S214005B50FFFFFFFFFFFFFFFF000000000000000048
S214005B600000000000000000000000000000000030
S214005B700000000000000000000000000000000020
S214005B800000000000000000000000000000000010
S214005B900000000000000000000000000000000000
S214005BA00000FFFFFFFFFFFFFFFFFFFFFFFFFFFFFE
S214005BB000000000000000000000000000000000E0
S214005BC000000000000000000000000000000000D0
S214005BD000000000000000000000000000000000C0
S214005BE0FFFFFFFFFFFFFFFFFFFFFFFFFFFF0000BE
S214005BF000000000000000000000000000000000A0
S214005C00000000000000000000000000000000008F
S214005C100000000000000000FFFFFFFFFFFFFFFF87
S214005C20000000000000000000000000000000006F
S214005C30000000000000000000000000000000005F
S214005C40000000000000000000000000000000004F
S214005C50000000000000000000000000000000003F
S214005C60000000000000000000000000000000002F
S214005C70000000000000000000000000000000001F
S214005C80000000000000000000000000000000000F
S214005C9000000000000000000000000000000000FF
S214005CA000000000000000000000000000000000EF
S214005CB000000000000000000000000000000000DF
S214005CC000000000000000000000000000000000CF
S214005CD000000000000000000000000000000000BF
S214005CE000000000000000000000000000000000AF
S214005CF0000000000000000000000000000000009F
S214005D00000000000000000000000000000000008E
S214005D10000000000000000000000000000000007E
S214005D200000FFFFFFFFFFFFFFFFFFFFFFFFFFFF7C
S214005D30FFFFFFFFFFFFFFFFFFFFFFFFFFFFFFFF6E
S214005D40FFFFFFFFFFFFFFFFFFFFFFFFFFFFFFFF5E
S214005D50FFFFFFFFFFFFFFFFFFFFFFFFFFFFFFFF4E
S214005D60FFFFFFFFFFFFFFFFFFFFFFFFFFFFFFFF3E
S214005D70FFFFFFFFFFFFFFFFFFFFFFFFFFFF00002C
S214005D80000000000000000000000000000000000E
S214005D9000000000000000000000000000000000FE
S214005DA000000000000000000000000000000000EE
S214005DB000000000000000000000000000000000DE
S214005DC0000000000000000000000000FFFFFFFFD2
S214005DD0FFFFFFFFFFFFFFFFFFFF000000000000C8
S214005DE000000000000000000000000000000000AE
S214005DF0000000000000000000000000000000009E
S214005E00000000000000000000000000000000008D
S214005E10000000000000000000000000000000007D
S214005E200000FFFFFFFFFFFFFFFFFFFFFFFFFFFF7B
S214005E30FFFF00000000000000000000000000005F
S214005E40000000000000000000000000000000004D
S214005E500000000000000000000000000000FFFF3F
S214005E60FFFFFFFFFFFFFFFFFFFFFFFFFFFF00003B
S214005E70000000000000000000000000000000001D
S214005E80000000000000000000000000000000000D
S214005E900000000000000000FFFFFFFFFFFFFFFF05
S214005EA000000000000000000000000000000000ED
S214005EB000000000000000000000000000000000DD
S214005EC000000000000000000000000000000000CD
S214005ED000000000000000000000000000000000BD
S214005EE000000000000000000000000000000000AD
S214005EF0000000000000000000000000000000009D
S214005F00000000000000000000000000000000008C
S214005F10000000000000000000000000000000007C
S214005F20000000000000000000000000000000006C
S214005F30000000000000000000000000000000005C
S214005F40000000000000000000000000000000004C
S214005F50000000000000000000000000000000003C
S214005F60000000000000000000000000000000002C
S214005F70000000000000000000000000000000001C
S214005F80000000000000000000000000000000000C
S214005F9000000000000000000000000000000000FC
S214005FA00000FFFFFFFFFFFFFFFF000000000000F4
S214005FB000000000000000000000000000000000DC
S214005FC000000000000000000000000000000000CC
S214005FD000000000000000000000000000000000BC
S214005FE000000000000000000000000000000000AC
S214005FF0000000000000000000000000000000009C
S214006000000000000000000000000000000000008B
S214006010000000000000000000000000000000007B
S214006020000000000000000000000000000000006B
S214006030000000000000000000000000000000005B
S214006040000000000000000000000000FFFFFFFF4F
S214006050FFFFFFFFFFFFFFFFFFFF00000000000045
S214006060000000000000000000000000000000002B
S214006070000000000000000000000000000000001B
S214006080000000000000000000000000000000000B
S21400609000000000000000000000000000000000FB
S2140060A00000FFFFFFFFFFFFFFFFFFFFFFFFFFFFF9
S2140060B0FFFFFFFF000000000000000000000000DF
S2140060C000000000000000000000000000000000CB
S2140060D00000000000000000000000000000FFFFBD
S2140060E0FFFFFFFFFFFFFFFFFFFFFFFFFFFF0000B9
S2140060F0000000000000000000000000000000009B
S214006100000000000000000000000000000000008A
S2140061100000000000000000FFFFFFFFFFFFFFFF82
S214006120000000000000000000000000000000006A
S214006130000000000000000000000000000000005A
S214006140000000000000000000000000000000004A
S214006150000000000000000000000000000000003A
S214006160000000000000000000000000000000002A
S214006170000000000000000000000000000000001A
S214006180000000000000000000000000000000000A
S21400619000000000000000000000000000000000FA
S2140061A000000000000000000000000000000000EA
S2140061B000000000000000000000000000000000DA
S2140061C000000000000000000000000000000000CA
S2140061D000000000000000000000000000000000BA
S2140061E000000000000000000000000000000000AA
S2140061F0000000000000000000000000000000009A
S2140062000000000000000000000000000000000089
S2140062100000000000000000000000000000000079
S2140062200000FFFFFFFFFFFFFFFF00000000000071
S2140062300000000000000000000000000000000059
S2140062400000000000000000000000000000000049
S2140062500000000000000000000000000000000039
S2140062600000000000000000000000000000000029
S2140062700000000000000000000000000000000019
S2140062800000000000000000000000000000000009
S21400629000000000000000000000000000000000F9
S2140062A000000000000000000000000000000000E9
S2140062B000000000000000000000000000000000D9
S2140062C0000000000000000000000000FFFFFFFFCD
S2140062D0FFFFFFFFFFFFFFFFFFFFFFFF00000000C5
S2140062E000000000000000000000000000000000A9
S2140062F00000000000000000000000000000000099
S2140063000000000000000000000000000000000088
S2140063100000000000000000000000000000000078
S2140063200000FFFFFFFFFFFFFFFFFFFFFFFFFFFF76
S214006330FFFFFFFF0000000000000000000000005C
S2140063400000000000000000000000000000000048
S214006350000000000000000000000000FFFFFFFF3C
S214006360FFFFFFFFFFFFFFFFFFFFFFFFFFFF000036
S2140063700000000000000000000000000000000018
S2140063800000000000000000000000000000000008
S2140063900000000000000000FFFFFFFFFFFFFFFF00
S2140063A000000000000000000000000000000000E8
S2140063B000000000000000000000000000000000D8
S2140063C000000000000000000000000000000000C8
S2140063D000000000000000000000000000000000B8
S2140063E000000000000000000000000000000000A8
S2140063F00000000000000000000000000000000098
S2140064000000000000000000000000000000000087
S2140064100000000000000000000000000000000077
S2140064200000000000000000000000000000000067
S2140064300000000000000000000000000000000057
S2140064400000000000000000000000000000000047
S2140064500000000000000000000000000000000037
S2140064600000000000000000000000000000000027
S2140064700000000000000000000000000000000017
S2140064800000000000000000000000000000000007
S21400649000000000000000000000000000000000F7
S2140064A00000FFFFFFFFFFFFFFFF000000000000EF
S2140064B000000000000000000000000000000000D7
S2140064C000000000000000000000000000000000C7
S2140064D000000000000000000000000000000000B7
S2140064E000000000000000000000000000000000A7
S2140064F00000000000000000000000000000000097
S2140065000000000000000000000000000000000086
S2140065100000000000000000000000000000000076
S2140065200000000000000000000000000000000066
S2140065300000000000000000000000000000000056
S21400654000000000000000000000FFFFFFFFFFFF4C
S214006550FFFFFFFFFFFFFFFFFFFFFFFF0000000042
S2140065600000000000000000000000000000000026
S2140065700000000000000000000000000000000016
S2140065800000000000000000000000000000000006
S21400659000000000000000000000000000000000F6
S2140065A00000FFFFFFFFFFFFFFFFFFFFFFFFFFFFF4
S2140065B0FFFFFFFFFFFF00000000000000000000DC
S2140065C000000000000000000000000000000000C6
S2140065D000000000000000000000FFFFFFFFFFFFBC
S2140065E0FFFFFFFFFFFFFFFFFFFFFFFFFFFF0000B4
S2140065F00000000000000000000000000000000096
S2140066000000000000000000000000000000000085
S2140066100000000000000000FFFFFFFFFFFFFFFF7D
S2140066200000000000000000000000000000000065
S2140066300000000000000000000000000000000055
S2140066400000000000000000000000000000000045
S2140066500000000000000000000000000000000035
S2140066600000000000000000000000000000000025
S2140066700000000000000000000000000000000015
S2140066800000000000000000000000000000000005
S21400669000000000000000000000000000000000F5
S2140066A000000000000000000000000000000000E5
S2140066B000000000000000000000000000000000D5
S2140066C000000000000000000000000000000000C5
S2140066D000000000000000000000000000000000B5
S2140066E000000000000000000000000000000000A5
S2140066F00000000000000000000000000000000095
S2140067000000000000000000000000000000000084
S2140067100000000000000000000000000000000074
S2140067200000FFFFFFFFFFFFFFFF0000000000006C
S2140067300000000000000000000000000000000054
S2140067400000000000000000000000000000000044
S2140067500000000000000000000000000000000034
S2140067600000000000000000000000000000000024
S2140067700000000000000000000000000000000014
S2140067800000000000000000000000000000000004
S21400679000000000000000000000000000000000F4
S2140067A000000000000000000000000000000000E4
S2140067B000000000000000000000000000000000D4
S2140067C000000000000000000000FFFFFFFFFFFFCA
S2140067D0FFFFFFFFFFFFFFFFFFFFFFFF00000000C0
S2140067E000000000000000000000000000000000A4
S2140067F00000000000000000000000000000000094
S2140068000000000000000000000000000000000083
S2140068100000000000000000000000000000000073
S2140068200000FFFFFFFFFFFFFFFF0000FFFFFFFF6F
S214006830FFFFFFFFFFFFFFFF00000000000000005B
S2140068400000000000000000000000000000000043
S21400685000000000000000000000FFFFFFFFFFFF39
S214006860FFFFFFFFFFFFFFFFFFFFFFFFFFFF000031
S2140068700000000000000000000000000000000013
S2140068800000000000000000000000000000000003
S2140068900000000000000000FFFFFFFFFFFFFFFFFB
S2140068A000000000000000000000000000000000E3
S2140068B000000000000000000000000000000000D3
S2140068C000000000000000000000000000000000C3
S2140068D000000000000000000000000000000000B3
S2140068E000000000000000000000000000000000A3
S2140068F00000000000000000000000000000000093
S2140069000000000000000000000000000000000082
S2140069100000000000000000000000000000000072
S2140069200000000000000000000000000000000062
S2140069300000000000000000000000000000000052
S2140069400000000000000000000000000000000042
S2140069500000000000000000000000000000000032
S2140069600000000000000000000000000000000022
S2140069700000000000000000000000000000000012
S2140069800000000000000000000000000000000002
S21400699000000000000000000000000000000000F2
S2140069A00000FFFFFFFFFFFFFFFF000000000000EA
S2140069B000000000000000000000000000000000D2
S2140069C000000000000000000000000000000000C2
S2140069D000000000000000000000000000000000B2
S2140069E000000000000000000000000000000000A2
S2140069F00000000000000000000000000000000092
S214006A000000000000000000000000000000000081
S214006A100000000000000000000000000000000071
S214006A200000000000000000000000000000000061
S214006A300000000000000000000000000000000051
S214006A400000000000000000FFFFFFFFFFFFFFFF49
S214006A50FFFFFFFFFFFFFFFFFFFFFFFFFFFF00003F
S214006A600000000000000000000000000000000021
S214006A700000000000000000000000000000000011
S214006A800000000000000000000000000000000001
S214006A9000000000000000000000000000000000F1
S214006AA00000FFFFFFFFFFFFFFFF0000FFFFFFFFED
S214006AB0FFFFFFFFFFFFFFFF0000000000000000D9
S214006AC000000000000000000000000000000000C1
S214006AD00000000000000000FFFFFFFFFFFFFFFFB9
S214006AE0FFFFFFFF0000FFFFFFFFFFFFFFFF0000AD
S214006AF00000000000000000000000000000000091
S214006B000000000000000000000000000000000080
S214006B100000000000000000FFFFFFFFFFFFFFFF78
S214006B200000000000000000000000000000000060
S214006B300000000000000000000000000000000050
S214006B400000000000000000000000000000000040
S214006B500000000000000000000000000000000030
S214006B600000000000000000000000000000000020
S214006B700000000000000000000000000000000010
S214006B800000000000000000000000000000000000
S214006B9000000000000000000000000000000000F0
S214006BA000000000000000000000000000000000E0
S214006BB000000000000000000000000000000000D0
S214006BC000000000000000000000000000000000C0
S214006BD000000000000000000000000000000000B0
S214006BE000000000000000000000000000000000A0
S214006BF00000000000000000000000000000000090
S214006C00000000000000000000000000000000007F
S214006C10000000000000000000000000000000006F
S214006C200000FFFFFFFFFFFFFFFF00000000000067
S214006C30000000000000000000000000000000004F
S214006C40000000000000000000000000000000003F
S214006C50000000000000000000000000000000002F
S214006C60000000000000000000000000000000001F
S214006C70000000000000000000000000000000000F
S214006C8000000000000000000000000000000000FF
S214006C9000000000000000000000000000000000EF
S214006CA000000000000000000000000000000000DF
S214006CB000000000000000000000000000000000CF
S214006CC00000000000000000FFFFFFFFFFFFFFFFC7
S214006CD0FFFF0000FFFFFFFFFFFFFFFFFFFF0000BB
S214006CE0000000000000000000000000000000009F
S214006CF0000000000000000000000000000000008F
S214006D00000000000000000000000000000000007E
S214006D10000000000000000000000000000000006E
S214006D200000FFFFFFFFFFFFFFFF00000000FFFF68
S214006D30FFFFFFFFFFFFFFFFFFFF00000000000058
S214006D40000000000000000000000000000000003E
S214006D500000000000000000FFFFFFFFFFFFFFFF36
S214006D60FFFF00000000FFFFFFFFFFFFFFFF000028
S214006D70000000000000000000000000000000000E
S214006D8000000000000000000000000000000000FE
S214006D900000000000000000FFFFFFFFFFFFFFFFF6
S214006DA000000000000000000000000000000000DE
S214006DB000000000000000000000000000000000CE
S214006DC000000000000000000000000000000000BE
S214006DD000000000000000000000000000000000AE
S214006DE0000000000000000000000000000000009E
S214006DF0000000000000000000000000000000008E
S214006E00000000000000000000000000000000007D
S214006E10000000000000000000000000000000006D
S214006E20000000000000000000000000000000005D
S214006E30000000000000000000000000000000004D
S214006E40000000000000000000000000000000003D
S214006E50000000000000000000000000000000002D
S214006E60000000000000000000000000000000001D
S214006E70000000000000000000000000000000000D
S214006E8000000000000000000000000000000000FD
S214006E9000000000000000000000000000000000ED
S214006EA00000FFFFFFFFFFFFFFFF000000000000E5
S214006EB000000000000000000000000000000000CD
S214006EC000000000000000000000000000000000BD
S214006ED000000000000000000000000000000000AD
S214006EE0000000000000000000000000000000009D
S214006EF0000000000000000000000000000000008D
S214006F00000000000000000000000000000000007C
S214006F10000000000000000000000000000000006C
S214006F20000000000000000000000000000000005C
S214006F30000000000000000000000000000000004C
S214006F400000000000000000FFFFFFFFFFFFFFFF44
S214006F50FFFF0000FFFFFFFFFFFFFFFFFFFF000038
S214006F60000000000000000000000000000000001C
S214006F70000000000000000000000000000000000C
S214006F8000000000000000000000000000000000FC
S214006F9000000000000000000000000000000000EC
S214006FA00000FFFFFFFFFFFFFFFF000000000000E4
S214006FB0FFFFFFFFFFFFFFFFFFFFFFFF00000000D8
S214006FC000000000000000000000000000000000BC
S214006FD0000000000000FFFFFFFFFFFFFFFFFFFFB6
S214006FE0FFFF00000000FFFFFFFFFFFFFFFF0000A6
S214006FF0000000000000000000000000000000008C
S214007000000000000000000000000000000000007B
S2140070100000000000000000FFFFFFFFFFFFFFFF73
S214007020000000000000000000000000000000005B
S214007030000000000000000000000000000000004B
S214007040000000000000000000000000000000003B
S214007050000000000000000000000000000000002B
S214007060000000000000000000000000000000001B
S214007070000000000000000000000000000000000B
S21400708000000000000000000000000000000000FB
S21400709000000000000000000000000000000000EB
S2140070A000000000000000000000000000000000DB
S2140070B000000000000000000000000000000000CB
S2140070C000000000000000000000000000000000BB
S2140070D000000000000000000000000000000000AB
S2140070E0000000000000000000000000000000009B
S2140070F0000000000000000000000000000000008B
S214007100000000000000000000000000000000007A
S214007110000000000000000000000000000000006A
S2140071200000FFFFFFFFFFFFFFFF00000000000062
S214007130000000000000000000000000000000004A
S214007140000000000000000000000000000000003A
S214007150000000000000000000000000000000002A
S214007160000000000000000000000000000000001A
S214007170000000000000000000000000000000000A
S21400718000000000000000000000000000000000FA
S21400719000000000000000000000000000000000EA
S2140071A000000000000000000000000000000000DA
S2140071B000000000000000000000000000000000CA
S2140071C0000000000000FFFFFFFFFFFFFFFFFFFFC4
S2140071D0000000000000FFFFFFFFFFFFFFFFFFFFB4
S2140071E0000000000000000000000000000000009A
S2140071F0000000000000000000000000000000008A
S2140072000000000000000000000000000000000079
S2140072100000000000000000000000000000000069
S2140072200000FFFFFFFFFFFFFFFF00000000000061
S214007230FFFFFFFFFFFFFFFFFFFFFFFF0000000055
S2140072400000000000000000000000000000000039
S214007250000000000000FFFFFFFFFFFFFFFFFFFF33
S214007260000000000000FFFFFFFFFFFFFFFF000021
S2140072700000000000000000000000000000000009
S21400728000000000000000000000000000000000F9
S2140072900000000000000000FFFFFFFFFFFFFFFFF1
S2140072A000000000000000000000000000000000D9
S2140072B000000000000000000000000000000000C9
S2140072C000000000000000000000000000000000B9
S2140072D000000000000000000000000000000000A9
S2140072E00000000000000000000000000000000099
S2140072F00000000000000000000000000000000089
S2140073000000000000000000000000000000000078
S2140073100000000000000000000000000000000068
S2140073200000000000000000000000000000000058
S2140073300000000000000000000000000000000048
S2140073400000000000000000000000000000000038
S2140073500000000000000000000000000000000028
S2140073600000000000000000000000000000000018
S2140073700000000000000000000000000000000008
S21400738000000000000000000000000000000000F8
S21400739000000000000000000000000000000000E8
S2140073A00000FFFFFFFFFFFFFFFF000000000000E0
S2140073B000000000000000000000000000000000C8
S2140073C000000000000000000000000000000000B8
S2140073D000000000000000000000000000000000A8
S2140073E00000000000000000000000000000000098
S2140073F00000000000000000000000000000000088
S2140074000000000000000000000000000000000077
S2140074100000000000000000000000000000000067
S2140074200000000000000000000000000000000057
S2140074300000000000000000000000000000000047
S214007440000000000000FFFFFFFFFFFFFFFFFFFF41
S214007450000000000000FFFFFFFFFFFFFFFFFFFF31
S2140074600000000000000000000000000000000017
S2140074700000000000000000000000000000000007
S21400748000000000000000000000000000000000F7
S21400749000000000000000000000000000000000E7
S2140074A00000FFFFFFFFFFFFFFFF000000000000DF
S2140074B00000FFFFFFFFFFFFFFFFFFFFFFFF0000D3
S2140074C000000000000000000000000000000000B7
S2140074D000000000FFFFFFFFFFFFFFFFFFFFFFFFB3
S2140074E0000000000000FFFFFFFFFFFFFFFF00009F
S2140074F00000000000000000000000000000000087
S2140075000000000000000000000000000000000076
S2140075100000000000000000FFFFFFFFFFFFFFFF6E
S2140075200000000000000000000000000000000056
S2140075300000000000000000000000000000000046
S2140075400000000000000000000000000000000036
S2140075500000000000000000000000000000000026
S2140075600000000000000000000000000000000016
S2140075700000000000000000000000000000000006
S21400758000000000000000000000000000000000F6
S21400759000000000000000000000000000000000E6
S2140075A000000000000000000000000000000000D6
S2140075B000000000000000000000000000000000C6
S2140075C000000000000000000000000000000000B6
S2140075D000000000000000000000000000000000A6
S2140075E00000000000000000000000000000000096
S2140075F00000000000000000000000000000000086
S2140076000000000000000000000000000000000075
S2140076100000000000000000000000000000000065
S2140076200000FFFFFFFFFFFFFFFF0000000000005D
S2140076300000000000000000000000000000000045
S2140076400000000000000000000000000000000035
S2140076500000000000000000000000000000000025
S2140076600000000000000000000000000000000015
S2140076700000000000000000000000000000000005
S21400768000000000000000000000000000000000F5
S21400769000000000000000000000000000000000E5
S2140076A000000000000000000000000000000000D5
S2140076B000000000000000000000000000000000C5
S2140076C0000000000000FFFFFFFFFFFFFFFFFFFFBF
S2140076D0000000000000FFFFFFFFFFFFFFFFFFFFAF
S2140076E00000000000000000000000000000000095
S2140076F00000000000000000000000000000000085
S2140077000000000000000000000000000000000074
S2140077100000000000000000000000000000000064
S2140077200000FFFFFFFFFFFFFFFF0000000000005C
S21400773000000000FFFFFFFFFFFFFFFFFFFF00004E
S2140077400000000000000000000000000000000034
S21400775000000000FFFFFFFFFFFFFFFFFFFF00002E
S214007760000000000000FFFFFFFFFFFFFFFF00001C
S2140077700000000000000000000000000000000004
S21400778000000000000000000000000000000000F4
S2140077900000000000000000FFFFFFFFFFFFFFFFEC
S2140077A000000000000000000000000000000000D4
S2140077B000000000000000000000000000000000C4
S2140077C000000000000000000000000000000000B4
S2140077D000000000000000000000000000000000A4
S2140077E00000000000000000000000000000000094
S2140077F00000000000000000000000000000000084
S2140078000000000000000000000000000000000073
S2140078100000000000000000000000000000000063
S2140078200000000000000000000000000000000053
S2140078300000000000000000000000000000000043
S2140078400000000000000000000000000000000033
S2140078500000000000000000000000000000000023
S2140078600000000000000000000000000000000013
S2140078700000000000000000000000000000000003
S21400788000000000000000000000000000000000F3
S21400789000000000000000000000000000000000E3
S2140078A00000FFFFFFFFFFFFFFFF000000000000DB
S2140078B000000000000000000000000000000000C3
S2140078C000000000000000000000000000000000B3
S2140078D000000000000000000000000000000000A3
S2140078E00000000000000000000000000000000093
S2140078F00000000000000000000000000000000083
S2140079000000000000000000000000000000000072
S2140079100000000000000000000000000000000062
S2140079200000000000000000000000000000000052
S2140079300000000000000000000000000000000042
S21400794000000000FFFFFFFFFFFFFFFFFFFF00003C
S2140079500000000000000000FFFFFFFFFFFFFFFF2A
S214007960FFFF000000000000000000000000000014
S2140079700000000000000000000000000000000002
S21400798000000000000000000000000000000000F2
S21400799000000000000000000000000000000000E2
S2140079A00000FFFFFFFFFFFFFFFF000000000000DA
S2140079B000000000FFFFFFFFFFFFFFFFFFFFFFFFCE
S2140079C000000000000000000000000000000000B2
S2140079D00000FFFFFFFFFFFFFFFFFFFFFFFF0000AE
S2140079E0000000000000FFFFFFFFFFFFFFFF00009A
S2140079F00000000000000000000000000000000082
S214007A000000000000000000000000000000000071
S214007A100000000000000000FFFFFFFFFFFFFFFF69
S214007A200000000000000000000000000000000051
S214007A300000000000000000000000000000000041
S214007A400000000000000000000000000000000031
S214007A500000000000000000000000000000000021
S214007A600000000000000000000000000000000011
S214007A700000000000000000000000000000000001
S214007A8000000000000000000000000000000000F1
S214007A9000000000000000000000000000000000E1
S214007AA000000000000000000000000000000000D1
S214007AB000000000000000000000000000000000C1
S214007AC000000000000000000000000000000000B1
S214007AD000000000000000000000000000000000A1
S214007AE00000000000000000000000000000000091
S214007AF00000000000000000000000000000000081
S214007B000000000000000000000000000000000070
S214007B100000000000000000000000000000000060
S214007B200000FFFFFFFFFFFFFFFF00000000000058
S214007B300000000000000000000000000000000040
S214007B400000000000000000000000000000000030
S214007B500000000000000000000000000000000020
S214007B600000000000000000000000000000000010
S214007B700000000000000000000000000000000000
S214007B8000000000000000000000000000000000F0
S214007B9000000000000000000000000000000000E0
S214007BA000000000000000000000000000000000D0
S214007BB000000000000000000000000000000000C0
S214007BC000000000FFFFFFFFFFFFFFFFFFFF0000BA
S214007BD00000000000000000FFFFFFFFFFFFFFFFA8
S214007BE0FFFF000000000000000000000000000092
S214007BF00000000000000000000000000000000080
S214007C00000000000000000000000000000000006F
S214007C10000000000000000000000000000000005F
S214007C200000FFFFFFFFFFFFFFFF00000000000057
S214007C30000000000000FFFFFFFFFFFFFFFFFFFF49
S214007C40FFFF000000000000000000000000000031
S214007C500000FFFFFFFFFFFFFFFFFFFF0000000029
S214007C60000000000000FFFFFFFFFFFFFFFF000017
S214007C7000000000000000000000000000000000FF
S214007C8000000000000000000000000000000000EF
S214007C900000000000000000FFFFFFFFFFFFFFFFE7
S214007CA000000000000000000000000000000000CF
S214007CB000000000000000000000000000000000BF
S214007CC000000000000000000000000000000000AF
S214007CD0000000000000000000000000000000009F
S214007CE0000000000000000000000000000000008F
S214007CF0000000000000000000000000000000007F
S214007D00000000000000000000000000000000006E
S214007D10000000000000000000000000000000005E
S214007D20000000000000000000000000000000004E
S214007D30000000000000000000000000000000003E
S214007D40000000000000000000000000000000002E
S214007D50000000000000000000000000000000001E
S214007D60000000000000000000000000000000000E
S214007D7000000000000000000000000000000000FE
S214007D8000000000000000000000000000000000EE
S214007D9000000000000000000000000000000000DE
S214007DA00000FFFFFFFFFFFFFFFF000000000000D6
S214007DB000000000000000000000000000000000BE
S214007DC000000000000000000000000000000000AE
S214007DD0000000000000000000000000000000009E
S214007DE0000000000000000000000000000000008E
S214007DF0000000000000000000000000000000007E
S214007E00000000000000000000000000000000006D
S214007E10000000000000000000000000000000005D
S214007E20000000000000000000000000000000004D
S214007E30000000000000000000000000000000003D
S214007E4000000000FFFFFFFFFFFFFFFFFFFF000037
S214007E500000000000000000FFFFFFFFFFFFFFFF25
S214007E60FFFF00000000000000000000000000000F
S214007E7000000000000000000000000000000000FD
S214007E8000000000000000000000000000000000ED
S214007E9000000000000000000000000000000000DD
S214007EA00000FFFFFFFFFFFFFFFF000000000000D5
S214007EB0000000000000FFFFFFFFFFFFFFFFFFFFC7
S214007EC0FFFF0000000000000000000000000000AF
S214007ED0FFFFFFFFFFFFFFFFFFFFFFFF00000000A9
S214007EE0000000000000FFFFFFFFFFFFFFFF000095
S214007EF0000000000000000000000000000000007D
S214007F00000000000000000000000000000000006C
S214007F100000000000000000FFFFFFFFFFFFFFFF64
S214007F20000000000000000000000000000000004C
S214007F30000000000000000000000000000000003C
S214007F40000000000000000000000000000000002C
S214007F50000000000000000000000000000000001C
S214007F60000000000000000000000000000000000C
S214007F7000000000000000000000000000000000FC
S214007F8000000000000000000000000000000000EC
S214007F9000000000000000000000000000000000DC
S214007FA000000000000000000000000000000000CC
S214007FB000000000000000000000000000000000BC
S214007FC000000000000000000000000000000000AC
S214007FD0000000000000000000000000000000009C
S214007FE0000000000000000000000000000000008C
S214007FF0000000000000000000000000000000007C
S214008000000000000000000000000000000000006B
S214008010000000000000000000000000000000005B
S2140080200000FFFFFFFFFFFFFFFF00000000000053
S214008030000000000000000000000000000000003B
S214008040000000000000000000000000000000002B
S214008050000000000000000000000000000000001B
S214008060000000000000000000000000000000000B
S21400807000000000000000000000000000000000FB
S21400808000000000000000000000000000000000EB
S21400809000000000000000000000000000000000DB
S2140080A000000000000000000000000000000000CB
S2140080B000000000000000000000000000000000BB
S2140080C00000FFFFFFFFFFFFFFFFFFFF00000000B5
S2140080D000000000000000000000FFFFFFFFFFFFA1
S2140080E0FFFFFFFF0000000000000000000000008F
S2140080F0000000000000000000000000000000007B
S214008100000000000000000000000000000000006A
S214008110000000000000000000000000000000005A
S2140081200000FFFFFFFFFFFFFFFF00000000000052
S2140081300000000000000000FFFFFFFFFFFFFFFF42
S214008140FFFFFFFF00000000000000000000FFFF30
S214008150FFFFFFFFFFFFFFFFFFFF00000000000024
S214008160000000000000FFFFFFFFFFFFFFFF000012
S21400817000000000000000000000000000000000FA
S21400818000000000000000000000000000000000EA
S2140081900000000000000000FFFFFFFFFFFFFFFFE2
S2140081A000000000000000000000000000000000CA
S2140081B000000000000000000000000000000000BA
S2140081C000000000000000000000000000000000AA
S2140081D0000000000000000000000000000000009A
S2140081E0000000000000000000000000000000008A
S2140081F0000000000000000000000000000000007A
S2140082000000000000000000000000000000000069
S2140082100000000000000000000000000000000059
S2140082200000000000000000000000000000000049
S2140082300000000000000000000000000000000039
S2140082400000000000000000000000000000000029
S2140082500000000000000000000000000000000019
S2140082600000000000000000000000000000000009
S21400827000000000000000000000000000000000F9
S21400828000000000000000000000000000000000E9
S21400829000000000000000000000000000000000D9
S2140082A00000FFFFFFFFFFFFFFFF000000000000D1
S2140082B000000000000000000000000000000000B9
S2140082C000000000000000000000000000000000A9
S2140082D00000000000000000000000000000000099
S2140082E00000000000000000000000000000000089
S2140082F00000000000000000000000000000000079
S2140083000000000000000000000000000000000068
S2140083100000000000000000000000000000000058
S2140083200000000000000000000000000000000048
S2140083300000000000000000000000000000000038
S2140083400000FFFFFFFFFFFFFFFFFFFF0000000032
S21400835000000000000000000000FFFFFFFFFFFF1E
S214008360FFFFFFFF0000000000000000000000000C
S21400837000000000000000000000000000000000F8
S21400838000000000000000000000000000000000E8
S21400839000000000000000000000000000000000D8
S2140083A00000FFFFFFFFFFFFFFFF000000000000D0
S2140083B000000000000000000000FFFFFFFFFFFFBE
S2140083C0FFFFFFFFFFFF0000000000000000FFFFB0
S2140083D0FFFFFFFFFFFFFFFFFFFF000000000000A2
S2140083E0000000000000FFFFFFFFFFFFFFFF000090
S2140083F00000000000000000000000000000000078
S2140084000000000000000000000000000000000067
S2140084100000000000000000FFFFFFFFFFFFFFFF5F
S2140084200000000000000000000000000000000047
S2140084300000000000000000000000000000000037
S2140084400000000000000000000000000000000027
S2140084500000000000000000000000000000000017
S2140084600000000000000000000000000000000007
S21400847000000000000000000000000000000000F7
S21400848000000000000000000000000000000000E7
S21400849000000000000000000000000000000000D7
S2140084A000000000000000000000000000000000C7
S2140084B000000000000000000000000000000000B7
S2140084C000000000000000000000000000000000A7
S2140084D00000000000000000000000000000000097
S2140084E00000000000000000000000000000000087
S2140084F00000000000000000000000000000000077
S2140085000000000000000000000000000000000066
S2140085100000000000000000000000000000000056
S2140085200000FFFFFFFFFFFFFFFF0000000000004E
S2140085300000000000000000000000000000000036
S2140085400000000000000000000000000000000026
S2140085500000000000000000000000000000000016
S2140085600000000000000000000000000000000006
S21400857000000000000000000000000000000000F6
S21400858000000000000000000000000000000000E6
S21400859000000000000000000000000000000000D6
S2140085A000000000000000000000000000000000C6
S2140085B000000000000000000000000000000000B6
S2140085C00000FFFFFFFFFFFFFFFFFFFF00000000B0
S2140085D000000000000000000000FFFFFFFFFFFF9C
S2140085E0FFFFFFFFFFFF000000000000000000008C
S2140085F00000000000000000000000000000000076
S2140086000000000000000000000000000000000065
S2140086100000000000000000000000000000000055
S2140086200000FFFFFFFFFFFFFFFF0000000000004D
S21400863000000000000000000000FFFFFFFFFFFF3B
S214008640FFFFFFFFFFFF000000000000FFFFFFFF2F
S214008650FFFFFFFFFFFFFFFF00000000000000001D
S214008660000000000000FFFFFFFFFFFFFFFF00000D
S21400867000000000000000000000000000000000F5
S21400868000000000000000000000000000000000E5
S2140086900000000000000000FFFFFFFFFFFFFFFFDD
S2140086A000000000000000000000000000000000C5
S2140086B000000000000000000000000000000000B5
S2140086C000000000000000000000000000000000A5
S2140086D00000000000000000000000000000000095
S2140086E00000000000000000000000000000000085
S2140086F00000000000000000000000000000000075
S2140087000000000000000000000000000000000064
S2140087100000000000000000000000000000000054
S2140087200000000000000000000000000000000044
S2140087300000000000000000000000000000000034
S2140087400000000000000000000000000000000024
S2140087500000000000000000000000000000000014
S2140087600000000000000000000000000000000004
S21400877000000000000000000000000000000000F4
S21400878000000000000000000000000000000000E4
S21400879000000000000000000000000000000000D4
S2140087A00000FFFFFFFFFFFFFFFF000000000000CC
S2140087B000000000000000000000000000000000B4
S2140087C000000000000000000000000000000000A4
S2140087D00000000000000000000000000000000094
S2140087E00000000000000000000000000000000084
S2140087F00000000000000000000000000000000074
S2140088000000000000000000000000000000000063
S2140088100000000000000000000000000000000053
S2140088200000000000000000000000000000000043
S2140088300000000000000000000000000000000033
S214008840FFFFFFFFFFFFFFFFFFFF0000000000002D
S214008850000000000000000000000000FFFFFFFF17
S214008860FFFFFFFFFFFF0000000000000000000009
S21400887000000000000000000000000000000000F3
S21400888000000000000000000000000000000000E3
S21400889000000000000000000000000000000000D3
S2140088A00000FFFFFFFFFFFFFFFF000000000000CB
S2140088B0000000000000000000000000FFFFFFFFB7
S2140088C0FFFFFFFFFFFFFFFF00000000FFFFFFFFAF
S2140088D0FFFFFFFFFFFF0000000000000000000099
S2140088E0000000000000FFFFFFFFFFFFFFFF00008B
S2140088F00000000000000000000000000000000073
S2140089000000000000000000000000000000000062
S2140089100000000000000000FFFFFFFFFFFFFFFF5A
S2140089200000000000000000000000000000000042
S2140089300000000000000000000000000000000032
S2140089400000000000000000000000000000000022
S2140089500000000000000000000000000000000012
S2140089600000000000000000000000000000000002
S21400897000000000000000000000000000000000F2
S21400898000000000000000000000000000000000E2
S21400899000000000000000000000000000000000D2
S2140089A000000000000000000000000000000000C2
S2140089B000000000000000000000000000000000B2
S2140089C000000000000000000000000000000000A2
S2140089D00000000000000000000000000000000092
S2140089E00000000000000000000000000000000082
S2140089F00000000000000000000000000000000072
S214008A000000000000000000000000000000000061
S214008A100000000000000000000000000000000051
S214008A200000FFFFFFFFFFFFFFFF00000000000049
S214008A300000000000000000000000000000000031
S214008A400000000000000000000000000000000021
S214008A500000000000000000000000000000000011
S214008A600000000000000000000000000000000001
S214008A7000000000000000000000000000000000F1
S214008A8000000000000000000000000000000000E1
S214008A9000000000000000000000000000000000D1
S214008AA000000000000000000000000000000000C1
S214008AB000000000000000000000000000000000B1
S214008AC0FFFFFFFFFFFFFFFFFFFF000000000000AB
S214008AD0000000000000000000000000FFFFFFFF95
S214008AE0FFFFFFFFFFFF0000000000000000000087
S214008AF00000000000000000000000000000000071
S214008B000000000000000000000000000000000060
S214008B100000000000000000000000000000000050
S214008B200000FFFFFFFFFFFFFFFF00000000000048
S214008B300000000000000000000000000000FFFF32
S214008B40FFFFFFFFFFFFFFFF0000FFFFFFFFFFFF2E
S214008B50FFFFFFFFFFFF0000000000000000000016
S214008B60000000000000FFFFFFFFFFFFFFFF000008
S214008B7000000000000000000000000000000000F0
S214008B8000000000000000000000000000000000E0
S214008B900000000000000000FFFFFFFFFFFFFFFFD8
S214008BA000000000000000000000000000000000C0
S214008BB000000000000000000000000000000000B0
S214008BC000000000000000000000000000000000A0
S214008BD00000000000000000000000000000000090
S214008BE00000000000000000000000000000000080
S214008BF00000000000000000000000000000000070
S214008C00000000000000000000000000000000005F
S214008C10000000000000000000000000000000004F
S214008C20000000000000000000000000000000003F
S214008C30000000000000000000000000000000002F
S214008C40000000000000000000000000000000001F
S214008C50000000000000000000000000000000000F
S214008C6000000000000000000000000000000000FF
S214008C7000000000000000000000000000000000EF
S214008C8000000000000000000000000000000000DF
S214008C9000000000000000000000000000000000CF
S214008CA00000FFFFFFFFFFFFFFFF000000000000C7
S214008CB000000000000000000000000000000000AF
S214008CC0000000000000000000000000000000009F
S214008CD0000000000000000000000000000000008F
S214008CE0000000000000000000000000000000007F
S214008CF0000000000000000000000000000000006F
S214008D00000000000000000000000000000000005E
S214008D10000000000000000000000000000000004E
S214008D20000000000000000000000000000000003E
S214008D30000000000000000000000000000000002E
S214008D40FFFFFFFFFFFFFFFFFFFF00000000000028
S214008D500000000000000000000000000000FFFF10
S214008D60FFFFFFFFFFFFFFFF000000000000000006
S214008D7000000000000000000000000000000000EE
S214008D8000000000000000000000000000000000DE
S214008D9000000000000000000000000000000000CE
S214008DA00000FFFFFFFFFFFFFFFF000000000000C6
S214008DB00000000000000000000000000000FFFFB0
S214008DC0FFFFFFFFFFFFFFFFFFFFFFFFFFFFFFFFAE
S214008DD0FFFFFFFF00000000000000000000000092
S214008DE0000000000000FFFFFFFFFFFFFFFF000086
S214008DF0000000000000000000000000000000006E
S214008E00000000000000000000000000000000005D
S214008E100000000000000000FFFFFFFFFFFFFFFF55
S214008E20000000000000000000000000000000003D
S214008E30000000000000000000000000000000002D
S214008E40000000000000000000000000000000001D
S214008E50000000000000000000000000000000000D
S214008E6000000000000000000000000000000000FD
S214008E7000000000000000000000000000000000ED
S214008E8000000000000000000000000000000000DD
S214008E9000000000000000000000000000000000CD
S214008EA000000000000000000000000000000000BD
S214008EB000000000000000000000000000000000AD
S214008EC0000000000000000000000000000000009D
S214008ED0000000000000000000000000000000008D
S214008EE0000000000000000000000000000000007D
S214008EF0000000000000000000000000000000006D
S214008F00000000000000000000000000000000005C
S214008F10000000000000000000000000000000004C
S214008F200000FFFFFFFFFFFFFFFF00000000000044
S214008F30000000000000000000000000000000002C
S214008F40000000000000000000000000000000001C
S214008F50000000000000000000000000000000000C
S214008F6000000000000000000000000000000000FC
S214008F7000000000000000000000000000000000EC
S214008F8000000000000000000000000000000000DC
S214008F9000000000000000000000000000000000CC
S214008FA000000000000000000000000000000000BC
S214008FB00000000000000000000000000000FFFFAE
S214008FC0FFFFFFFFFFFFFFFF0000000000000000A4
S214008FD00000000000000000000000000000FFFF8E
S214008FE0FFFFFFFFFFFFFFFF000000000000000084
S214008FF0000000000000000000000000000000006C
S214009000000000000000000000000000000000005B
S214009010000000000000000000000000000000004B
S2140090200000FFFFFFFFFFFFFFFF00000000000043
S214009030000000000000000000000000000000002B
S214009040FFFFFFFFFFFFFFFFFFFFFFFFFFFFFFFF2B
S214009050FFFFFFFF0000000000000000000000000F
S214009060000000000000FFFFFFFFFFFFFFFF000003
S21400907000000000000000000000000000000000EB
S21400908000000000000000000000000000000000DB
S2140090900000000000000000FFFFFFFFFFFFFFFFD3
S2140090A000000000000000000000000000000000BB
S2140090B000000000000000000000000000000000AB
S2140090C0000000000000000000000000000000009B
S2140090D0000000000000000000000000000000008B
S2140090E0000000000000000000000000000000007B
S2140090F0000000000000000000000000000000006B
S214009100000000000000000000000000000000005A
S214009110000000000000000000000000000000004A
S214009120000000000000000000000000000000003A
S214009130000000000000000000000000000000002A
S214009140000000000000000000000000000000001A
S214009150000000000000000000000000000000000A
S21400916000000000000000000000000000000000FA
S21400917000000000000000000000000000000000EA
S21400918000000000000000000000000000000000DA
S21400919000000000000000000000000000000000CA
S2140091A00000FFFFFFFFFFFFFFFF000000000000C2
S2140091B000000000000000000000000000000000AA
S2140091C0000000000000000000000000000000009A
S2140091D0000000000000000000000000000000008A
S2140091E0000000000000000000000000000000007A
S2140091F0000000000000000000000000000000006A
S2140092000000000000000000000000000000000059
S2140092100000000000000000000000000000000049
S2140092200000000000000000000000000000000039
S2140092300000000000000000000000000000FFFF2B
S214009240FFFFFFFFFFFFFFFF000000000000000021
S2140092500000000000000000000000000000FFFF0B
S214009260FFFFFFFFFFFFFFFF000000000000000001
S21400927000000000000000000000000000000000E9
S21400928000000000000000000000000000000000D9
S21400929000000000000000000000000000000000C9
S2140092A00000FFFFFFFFFFFFFFFF000000000000C1
S2140092B000000000000000000000000000000000A9
S2140092C0FFFFFFFFFFFFFFFFFFFFFFFFFFFFFFFFA9
S2140092D0FFFF00000000000000000000000000008B
S2140092E0000000000000FFFFFFFFFFFFFFFF000081
S2140092F00000000000000000000000000000000069
S2140093000000000000000000000000000000000058
S2140093100000000000000000FFFFFFFFFFFFFFFF50
S2140093200000000000000000000000000000000038
S2140093300000000000000000000000000000000028
S2140093400000000000000000000000000000000018
S2140093500000000000000000000000000000000008
S21400936000000000000000000000000000000000F8
S21400937000000000000000000000000000000000E8
S21400938000000000000000000000000000000000D8
S21400939000000000000000000000000000000000C8
S2140093A000000000000000000000000000000000B8
S2140093B000000000000000000000000000000000A8
S2140093C00000000000000000000000000000000098
S2140093D00000000000000000000000000000000088
S2140093E00000000000000000000000000000000078
S2140093F00000000000000000000000000000000068
S2140094000000000000000000000000000000000057
S2140094100000000000000000000000000000000047
S2140094200000FFFFFFFFFFFFFFFF0000000000003F
S2140094300000000000000000000000000000000027
S2140094400000000000000000000000000000000017
S2140094500000000000000000000000000000000007
S21400946000000000000000000000000000000000F7
S21400947000000000000000000000000000000000E7
S21400948000000000000000000000000000000000D7
S21400949000000000000000000000000000000000C7
S2140094A000000000000000000000000000000000B7
S2140094B00000000000000000000000000000FFFFA9
S2140094C0FFFFFFFFFFFFFFFF00000000000000009F
S2140094D00000000000000000000000000000000087
S2140094E0FFFFFFFFFFFFFFFFFFFF00000000000081
S2140094F00000000000000000000000000000000067
S2140095000000000000000000000000000000000056
S2140095100000000000000000000000000000000046
S2140095200000FFFFFFFFFFFFFFFF0000000000003E
S2140095300000000000000000000000000000000026
S2140095400000FFFFFFFFFFFFFFFFFFFFFFFFFFFF24
S214009550FFFF000000000000000000000000000008
S214009560000000000000FFFFFFFFFFFFFFFF0000FE
S21400957000000000000000000000000000000000E6
S21400958000000000000000000000000000000000D6
S2140095900000000000000000FFFFFFFFFFFFFFFFCE
S2140095A000000000000000000000000000000000B6
S2140095B000000000000000000000000000000000A6
S2140095C00000000000000000000000000000000096
S2140095D00000000000000000000000000000000086
S2140095E00000000000000000000000000000000076
S2140095F00000000000000000000000000000000066
S2140096000000000000000000000000000000000055
S2140096100000000000000000000000000000000045
S2140096200000000000000000000000000000000035
S2140096300000000000000000000000000000000025
S2140096400000000000000000000000000000000015
S2140096500000000000000000000000000000000005
S21400966000000000000000000000000000000000F5
S21400967000000000000000000000000000000000E5
S21400968000000000000000000000000000000000D5
S21400969000000000000000000000000000000000C5
S2140096A00000FFFFFFFFFFFFFFFF000000000000BD
S2140096B000000000000000000000000000000000A5
S2140096C00000000000000000000000000000000095
S2140096D00000000000000000000000000000000085
S2140096E00000000000000000000000000000000075
S2140096F00000000000000000000000000000000065
S2140097000000000000000000000000000000000054
S2140097100000000000000000000000000000000044
S2140097200000000000000000000000000000000034
S214009730000000000000000000000000FFFFFFFF28
S214009740FFFFFFFFFFFF000000000000000000001A
S2140097500000000000000000000000000000000004
S214009760FFFFFFFFFFFFFFFFFFFF000000000000FE
S21400977000000000000000000000000000000000E4
S21400978000000000000000000000000000000000D4
S21400979000000000000000000000000000000000C4
S2140097A00000FFFFFFFFFFFFFFFF000000000000BC
S2140097B000000000000000000000000000000000A4
S2140097C000000000FFFFFFFFFFFFFFFFFFFFFFFFA0
S2140097D00000000000000000000000000000000084
S2140097E0000000000000FFFFFFFFFFFFFFFF00007C
S2140097F00000000000000000000000000000000064
S2140098000000000000000000000000000000000053
S2140098100000000000000000FFFFFFFFFFFFFFFF4B
S2140098200000000000000000000000000000000033
S2140098300000000000000000000000000000000023
S2140098400000000000000000000000000000000013
S2140098500000000000000000000000000000000003
S21400986000000000000000000000000000000000F3
S21400987000000000000000000000000000000000E3
S21400988000000000000000000000000000000000D3
S21400989000000000000000000000000000000000C3
S2140098A000000000000000000000000000000000B3
S2140098B000000000000000000000000000000000A3
S2140098C00000000000000000000000000000000093
S2140098D00000000000000000000000000000000083
S2140098E00000000000000000000000000000000073
S2140098F00000000000000000000000000000000063
S2140099000000000000000000000000000000000052
S2140099100000000000000000000000000000000042
S2140099200000FFFFFFFFFFFFFFFF0000000000003A
S2140099300000000000000000000000000000000022
S2140099400000000000000000000000000000000012
S2140099500000000000000000000000000000000002
S21400996000000000000000000000000000000000F2
S21400997000000000000000000000000000000000E2
S21400998000000000000000000000000000000000D2
S21400999000000000000000000000000000000000C2
S2140099A000000000000000000000000000000000B2
S2140099B0000000000000000000000000FFFFFFFFA6
S2140099C0FFFFFFFFFFFF0000000000000000000098
S2140099D00000000000000000000000000000000082
S2140099E0FFFFFFFFFFFFFFFFFFFF0000000000007C
S2140099F00000000000000000000000000000000062
S214009A000000000000000000000000000000000051
S214009A100000000000000000000000000000000041
S214009A200000FFFFFFFFFFFFFFFF00000000000039
S214009A300000000000000000000000000000000021
S214009A4000000000FFFFFFFFFFFFFFFFFFFFFFFF1D
S214009A500000000000000000000000000000000001
S214009A60000000000000FFFFFFFFFFFFFFFF0000F9
S214009A7000000000000000000000000000000000E1
S214009A8000000000000000000000000000000000D1
S214009A900000000000000000FFFFFFFFFFFFFFFFC9
S214009AA000000000000000000000000000000000B1
S214009AB000000000000000000000000000000000A1
S214009AC00000000000000000000000000000000091
S214009AD00000000000000000000000000000000081
S214009AE00000000000000000000000000000000071
S214009AF00000000000000000000000000000000061
S214009B000000000000000000000000000000000050
S214009B100000000000000000000000000000000040
S214009B200000000000000000000000000000000030
S214009B300000000000000000000000000000000020
S214009B400000000000000000000000000000000010
